{"abi":[{"type":"constructor","inputs":[{"name":"_daoFactory","type":"address","internalType":"address"},{"name":"_initialOwner","type":"address","internalType":"address"}],"stateMutability":"nonpayable"},{"type":"function","name":"DAO_SHARE","inputs":[],"outputs":[{"name":"","type":"uint256","internalType":"uint256"}],"stateMutability":"view"},{"type":"function","name":"REVIEWER_SHARE","inputs":[],"outputs":[{"name":"","type":"uint256","internalType":"uint256"}],"stateMutability":"view"},{"type":"function","name":"assignReviewer","inputs":[{"name":"_auditId","type":"uint256","internalType":"uint256"},{"name":"_reviewer","type":"address","internalType":"address"}],"outputs":[],"stateMutability":"nonpayable"},{"type":"function","name":"auditCount","inputs":[],"outputs":[{"name":"","type":"uint256","internalType":"uint256"}],"stateMutability":"view"},{"type":"function","name":"audits","inputs":[{"name":"","type":"uint256","internalType":"uint256"}],"outputs":[{"name":"id","type":"uint256","internalType":"uint256"},{"name":"dao","type":"address","internalType":"address"},{"name":"requester","type":"address","internalType":"address"},{"name":"assignedReviewer","type":"address","internalType":"address"},{"name":"amount","type":"uint256","internalType":"uint256"},{"name":"ipfsHash","type":"string","internalType":"string"},{"name":"status","type":"uint8","internalType":"enum AuditEscrow.AuditStatus"},{"name":"createdAt","type":"uint256","internalType":"uint256"},{"name":"completedAt","type":"uint256","internalType":"uint256"},{"name":"reviewerPaid","type":"bool","internalType":"bool"},{"name":"daoPaid","type":"bool","internalType":"bool"}],"stateMutability":"view"},{"type":"function","name":"completeAudit","inputs":[{"name":"_auditId","type":"uint256","internalType":"uint256"}],"outputs":[],"stateMutability":"nonpayable"},{"type":"function","name":"createAudit","inputs":[{"name":"_dao","type":"address","internalType":"address"},{"name":"_ipfsHash","type":"string","internalType":"string"}],"outputs":[{"name":"","type":"uint256","internalType":"uint256"}],"stateMutability":"payable"},{"type":"function","name":"daoAudits","inputs":[{"name":"","type":"address","internalType":"address"},{"name":"","type":"uint256","internalType":"uint256"}],"outputs":[{"name":"","type":"uint256","internalType":"uint256"}],"stateMutability":"view"},{"type":"function","name":"daoFactory","inputs":[],"outputs":[{"name":"","type":"address","internalType":"address"}],"stateMutability":"view"},{"type":"function","name":"disputeAudit","inputs":[{"name":"_auditId","type":"uint256","internalType":"uint256"},{"name":"_reason","type":"string","internalType":"string"}],"outputs":[],"stateMutability":"nonpayable"},{"type":"function","name":"getAudit","inputs":[{"name":"_auditId","type":"uint256","internalType":"uint256"}],"outputs":[{"name":"","type":"tuple","internalType":"struct AuditEscrow.Audit","components":[{"name":"id","type":"uint256","internalType":"uint256"},{"name":"dao","type":"address","internalType":"address"},{"name":"requester","type":"address","internalType":"address"},{"name":"assignedReviewer","type":"address","internalType":"address"},{"name":"amount","type":"uint256","internalType":"uint256"},{"name":"ipfsHash","type":"string","internalType":"string"},{"name":"status","type":"uint8","internalType":"enum AuditEscrow.AuditStatus"},{"name":"createdAt","type":"uint256","internalType":"uint256"},{"name":"completedAt","type":"uint256","internalType":"uint256"},{"name":"reviewerPaid","type":"bool","internalType":"bool"},{"name":"daoPaid","type":"bool","internalType":"bool"}]}],"stateMutability":"view"},{"type":"function","name":"getAuditCount","inputs":[],"outputs":[{"name":"","type":"uint256","internalType":"uint256"}],"stateMutability":"view"},{"type":"function","name":"getDAOAudits","inputs":[{"name":"_dao","type":"address","internalType":"address"}],"outputs":[{"name":"","type":"uint256[]","internalType":"uint256[]"}],"stateMutability":"view"},{"type":"function","name":"getRequesterAudits","inputs":[{"name":"_requester","type":"address","internalType":"address"}],"outputs":[{"name":"","type":"uint256[]","internalType":"uint256[]"}],"stateMutability":"view"},{"type":"function","name":"getReviewerAudits","inputs":[{"name":"_reviewer","type":"address","internalType":"address"}],"outputs":[{"name":"","type":"uint256[]","internalType":"uint256[]"}],"stateMutability":"view"},{"type":"function","name":"owner","inputs":[],"outputs":[{"name":"","type":"address","internalType":"address"}],"stateMutability":"view"},{"type":"function","name":"refundAudit","inputs":[{"name":"_auditId","type":"uint256","internalType":"uint256"}],"outputs":[],"stateMutability":"nonpayable"},{"type":"function","name":"releasePayment","inputs":[{"name":"_auditId","type":"uint256","internalType":"uint256"}],"outputs":[],"stateMutability":"nonpayable"},{"type":"function","name":"renounceOwnership","inputs":[],"outputs":[],"stateMutability":"nonpayable"},{"type":"function","name":"requesterAudits","inputs":[{"name":"","type":"address","internalType":"address"},{"name":"","type":"uint256","internalType":"uint256"}],"outputs":[{"name":"","type":"uint256","internalType":"uint256"}],"stateMutability":"view"},{"type":"function","name":"reviewerAudits","inputs":[{"name":"","type":"address","internalType":"address"},{"name":"","type":"uint256","internalType":"uint256"}],"outputs":[{"name":"","type":"uint256","internalType":"uint256"}],"stateMutability":"view"},{"type":"function","name":"transferOwnership","inputs":[{"name":"newOwner","type":"address","internalType":"address"}],"outputs":[],"stateMutability":"nonpayable"},{"type":"event","name":"AuditAssigned","inputs":[{"name":"auditId","type":"uint256","indexed":true,"internalType":"uint256"},{"name":"reviewer","type":"address","indexed":true,"internalType":"address"},{"name":"timestamp","type":"uint256","indexed":false,"internalType":"uint256"}],"anonymous":false},{"type":"event","name":"AuditCompleted","inputs":[{"name":"auditId","type":"uint256","indexed":true,"internalType":"uint256"},{"name":"reviewer","type":"address","indexed":true,"internalType":"address"},{"name":"timestamp","type":"uint256","indexed":false,"internalType":"uint256"}],"anonymous":false},{"type":"event","name":"AuditCreated","inputs":[{"name":"auditId","type":"uint256","indexed":true,"internalType":"uint256"},{"name":"dao","type":"address","indexed":true,"internalType":"address"},{"name":"requester","type":"address","indexed":true,"internalType":"address"},{"name":"amount","type":"uint256","indexed":false,"internalType":"uint256"},{"name":"ipfsHash","type":"string","indexed":false,"internalType":"string"},{"name":"timestamp","type":"uint256","indexed":false,"internalType":"uint256"}],"anonymous":false},{"type":"event","name":"AuditDisputed","inputs":[{"name":"auditId","type":"uint256","indexed":true,"internalType":"uint256"},{"name":"disputer","type":"address","indexed":true,"internalType":"address"},{"name":"reason","type":"string","indexed":false,"internalType":"string"},{"name":"timestamp","type":"uint256","indexed":false,"internalType":"uint256"}],"anonymous":false},{"type":"event","name":"AuditRefunded","inputs":[{"name":"auditId","type":"uint256","indexed":true,"internalType":"uint256"},{"name":"requester","type":"address","indexed":true,"internalType":"address"},{"name":"amount","type":"uint256","indexed":false,"internalType":"uint256"},{"name":"timestamp","type":"uint256","indexed":false,"internalType":"uint256"}],"anonymous":false},{"type":"event","name":"OwnershipTransferred","inputs":[{"name":"previousOwner","type":"address","indexed":true,"internalType":"address"},{"name":"newOwner","type":"address","indexed":true,"internalType":"address"}],"anonymous":false},{"type":"event","name":"PaymentReleased","inputs":[{"name":"auditId","type":"uint256","indexed":true,"internalType":"uint256"},{"name":"recipient","type":"address","indexed":true,"internalType":"address"},{"name":"amount","type":"uint256","indexed":false,"internalType":"uint256"},{"name":"recipientType","type":"string","indexed":false,"internalType":"string"},{"name":"timestamp","type":"uint256","indexed":false,"internalType":"uint256"}],"anonymous":false},{"type":"error","name":"OwnableInvalidOwner","inputs":[{"name":"owner","type":"address","internalType":"address"}]},{"type":"error","name":"OwnableUnauthorizedAccount","inputs":[{"name":"account","type":"address","internalType":"address"}]},{"type":"error","name":"ReentrancyGuardReentrantCall","inputs":[]}],"bytecode":{"object":"0x608060405234801562000010575f80fd5b5060405162001c8238038062001c82833981016040819052620000339162000124565b806001600160a01b0381166200006257604051631e4fbdf760e01b81525f600482015260240160405180910390fd5b6200006d81620000b9565b5060017f9b779b17422d0df92223018b32b4d1fa46e071723d6817e2486d003becc55f005550600280546001600160a01b0319166001600160a01b03929092169190911790556200015a565b5f80546001600160a01b038381166001600160a01b0319831681178455604051919092169283917f8be0079c531659141344cd1fd0a4f28419497f9722a3daafe3b4186f6b6457e09190a35050565b80516001600160a01b03811681146200011f575f80fd5b919050565b5f806040838503121562000136575f80fd5b620001418362000108565b9150620001516020840162000108565b90509250929050565b611b1a80620001685f395ff3fe608060405260043610610131575f3560e01c80636353bde6116100a8578063b60e73db1161006d578063b60e73db14610332578063c421c79e14610368578063cd7df8a71461037c578063ec486cf31461039b578063f18b226f146103ba578063f2fde38b146103d9575f80fd5b80636353bde6146102bb578063715018a6146102cf57806388685cd9146102e35780638da5cb5b14610302578063a6cfa1c21461031e575f80fd5b80631fa09b90116100f95780631fa09b90146101f55780632fc5d0d114610214578063362b6d19146102335780633e88adb4146102525780634667219f1461027157806348f7f2a314610284575f80fd5b80630be2e19214610135578063110fea201461015d578063176126701461017e57806317bf37a31461019d5780631bd4e1b9146101c9575b5f80fd5b348015610140575f80fd5b5061014a60015481565b6040519081526020015b60405180910390f35b348015610168575f80fd5b5061017c6101773660046114db565b6103f8565b005b348015610189575f80fd5b5061017c61019836600461150d565b610553565b3480156101a8575f80fd5b506101bc6101b73660046114db565b610719565b60405161015491906115ae565b3480156101d4575f80fd5b506101e86101e336600461167b565b6108f4565b604051610154919061169b565b348015610200575f80fd5b506101e861020f36600461167b565b61095d565b34801561021f575f80fd5b5061014a61022e3660046116de565b6109c4565b34801561023e575f80fd5b5061017c61024d3660046114db565b6109ef565b34801561025d575f80fd5b5061014a61026c3660046116de565b610b4b565b61014a61027f3660046117a3565b610b64565b34801561028f575f80fd5b506002546102a3906001600160a01b031681565b6040516001600160a01b039091168152602001610154565b3480156102c6575f80fd5b5060015461014a565b3480156102da575f80fd5b5061017c610df4565b3480156102ee575f80fd5b5061017c6102fd3660046114db565b610e07565b34801561030d575f80fd5b505f546001600160a01b03166102a3565b348015610329575f80fd5b5061014a605081565b34801561033d575f80fd5b5061035161034c3660046114db565b6110f6565b6040516101549b9a999897969594939291906117ee565b348015610373575f80fd5b5061014a601481565b348015610387575f80fd5b5061014a6103963660046116de565b6111ec565b3480156103a6575f80fd5b5061017c6103b536600461186d565b611205565b3480156103c5575f80fd5b506101e86103d436600461167b565b611375565b3480156103e4575f80fd5b5061017c6103f336600461167b565b6113dc565b5f8181526003602052604090208054821461042e5760405162461bcd60e51b81526004016104259061189b565b60405180910390fd5b6001600682015460ff1660048111156104495761044961157a565b1461048c5760405162461bcd60e51b81526020600482015260136024820152724175646974206e6f7420696e2072657669657760681b6044820152606401610425565b60038101546001600160a01b031633146104f45760405162461bcd60e51b815260206004820152602360248201527f4f6e6c792061737369676e65642072657669657765722063616e20636f6d706c60448201526265746560e81b6064820152608401610425565b60068101805460ff19166002179055426008820181905560038201546040519182526001600160a01b03169083907fa1a50f933d726c649de03ad0bdb018596d5afc3658752531517f110acd103e779060200160405180910390a35050565b5f828152600360205260409020805483146105805760405162461bcd60e51b81526004016104259061189b565b5f600682015460ff16600481111561059a5761059a61157a565b146105db5760405162461bcd60e51b81526020600482015260116024820152704175646974206e6f742070656e64696e6760781b6044820152606401610425565b60018101546001600160a01b031633146106375760405162461bcd60e51b815260206004820152601c60248201527f4f6e6c792044414f2063616e2061737369676e207265766965776572000000006044820152606401610425565b6001600160a01b03821661068d5760405162461bcd60e51b815260206004820152601860248201527f496e76616c6964207265766965776572206164647265737300000000000000006044820152606401610425565b6003810180546001600160a01b0319166001600160a01b03841690811790915560068201805460ff191660019081179091555f828152600560209081526040808320805494850181558352918190209092018690555142815285917fa8e192d7eef911821ec452b431230713018f778fd27172d4851311cfdefbc30991015b60405180910390a3505050565b60408051610160810182525f8082526020820181905291810182905260608082018390526080820183905260a082015260c0810182905260e08101829052610100810182905261012081018290526101408101919091525f82815260036020526040902054821461079c5760405162461bcd60e51b81526004016104259061189b565b5f828152600360208181526040928390208351610160810185528154815260018201546001600160a01b03908116938201939093526002820154831694810194909452918201541660608301526004810154608083015260058101805460a084019190610808906118c4565b80601f0160208091040260200160405190810160405280929190818152602001828054610834906118c4565b801561087f5780601f106108565761010080835404028352916020019161087f565b820191905f5260205f20905b81548152906001019060200180831161086257829003601f168201915b5050509183525050600682015460209091019060ff1660048111156108a6576108a661157a565b60048111156108b7576108b761157a565b8152600782015460208201526008820154604082015260099091015460ff8082161515606084015261010090910416151560809091015292915050565b6001600160a01b0381165f9081526004602090815260409182902080548351818402810184019094528084526060939283018282801561095157602002820191905f5260205f20905b81548152602001906001019080831161093d575b50505050509050919050565b6001600160a01b0381165f9081526005602090815260409182902080548351818402810184019094528084526060939283018282801561095157602002820191905f5260205f209081548152602001906001019080831161093d5750505050509050919050565b6004602052815f5260405f2081815481106109dd575f80fd5b905f5260205f20015f91509150505481565b6109f7611416565b5f81815260036020526040902080548214610a245760405162461bcd60e51b81526004016104259061189b565b6003600682015460ff166004811115610a3f57610a3f61157a565b1480610a6257505f600682015460ff166004811115610a6057610a6061157a565b145b610aae5760405162461bcd60e51b815260206004820152601860248201527f41756469742063616e6e6f7420626520726566756e64656400000000000000006044820152606401610425565b600481810154600283015460068401805460ff191690931790925560405190916001600160a01b03169081906108fc8415029084905f818181858888f19350505050158015610aff573d5f803e3d5ffd5b50604080518381524260208201526001600160a01b0383169186917f4b5246332c9e580991fdbfcd5955a56850c973cf0a1236250d4fea81a6a589ff910160405180910390a350505050565b6005602052815f5260405f2081815481106109dd575f80fd5b5f610b6d611442565b5f3411610bb05760405162461bcd60e51b8152602060048201526011602482015270135d5cdd081cd95b99081c185e5b595b9d607a1b6044820152606401610425565b5f825111610bf55760405162461bcd60e51b815260206004820152601260248201527112541194c81a185cda081c995c5d5a5c995960721b6044820152606401610425565b60018054905f610c0483611910565b90915550506001805460408051610160810182528281526001600160a01b038781166020808401918252338486019081525f60608601818152346080880190815260a088018d815260c089018490524260e08a01526101008901849052610120890184905261014089018490528a84526003958690529890922087518155945199850180549a87166001600160a01b03199b8c161790559151600285018054918716918b1691909117905590519183018054929094169190971617909155935160048501559051919290916005820190610cde9082611976565b5060c082015160068201805460ff19166001836004811115610d0257610d0261157a565b021790555060e08201516007820155610100808301516008830155610120830151600990920180546101409094015161ffff1990941692151561ff0019169290921792151502919091179055335f818152600460209081526040808320805460018181018355918552838520018690556001600160a01b0389168085526006845282852080549283018155855292909320909201849055905183907fd07537daa798ff581640d302b7fe690171c43527dcecee3a579f9e81dfd1ef9c90610dce90349089904290611a32565b60405180910390a49050610dee60015f80516020611ac583398151915255565b92915050565b610dfc611416565b610e055f61145d565b565b610e0f611416565b610e17611442565b5f81815260036020526040902080548214610e445760405162461bcd60e51b81526004016104259061189b565b6002600682015460ff166004811115610e5f57610e5f61157a565b14610ea25760405162461bcd60e51b8152602060048201526013602482015272105d591a5d081b9bdd0818dbdb5c1b195d1959606a1b6044820152606401610425565b600981015460ff161580610ec057506009810154610100900460ff16155b610f0c5760405162461bcd60e51b815260206004820152601960248201527f5061796d656e747320616c72656164792072656c6561736564000000000000006044820152606401610425565b5f606460508360040154610f209190611a5a565b610f2a9190611a71565b90505f818360040154610f3d9190611a90565b600984015490915060ff1661100c5760038301546040516001600160a01b039091169083156108fc029084905f818181858888f19350505050158015610f85573d5f803e3d5ffd5b5060098301805460ff1916600117905560038301546040516001600160a01b039091169085907fa67f0cd118e14d6fab4fea5c80adee7c2d649dd7ec22b3a638ab57567ebdb2b5906110039086904290918252606060208301819052600890830152673932bb34b2bbb2b960c11b6080830152604082015260a00190565b60405180910390a35b6009830154610100900460ff166110da5760018301546040516001600160a01b039091169082156108fc029083905f818181858888f19350505050158015611056573d5f803e3d5ffd5b5060098301805461ff00191661010017905560018301546040516001600160a01b039091169085907fa67f0cd118e14d6fab4fea5c80adee7c2d649dd7ec22b3a638ab57567ebdb2b5906110d190859042909182526060602083018190526003908301526264616f60e81b6080830152604082015260a00190565b60405180910390a35b5050506110f360015f80516020611ac583398151915255565b50565b600360208190525f918252604090912080546001820154600283015493830154600484015460058501805494966001600160a01b03948516969085169593909416939192611143906118c4565b80601f016020809104026020016040519081016040528092919081815260200182805461116f906118c4565b80156111ba5780601f10611191576101008083540402835291602001916111ba565b820191905f5260205f20905b81548152906001019060200180831161119d57829003601f168201915b50505050600683015460078401546008850154600990950154939460ff9283169491935091808216916101009004168b565b6006602052815f5260405f2081815481106109dd575f80fd5b5f828152600360205260409020805483146112325760405162461bcd60e51b81526004016104259061189b565b6001600682015460ff16600481111561124d5761124d61157a565b148061127157506002600682015460ff16600481111561126f5761126f61157a565b145b6112bd5760405162461bcd60e51b815260206004820152601860248201527f41756469742063616e6e6f7420626520646973707574656400000000000000006044820152606401610425565b60028101546001600160a01b03163314806112e4575060038101546001600160a01b031633145b6113305760405162461bcd60e51b815260206004820152601960248201527f4e6f7420617574686f72697a656420746f2064697370757465000000000000006044820152606401610425565b60068101805460ff19166003179055604051339084907f5100c75c07fc65a9c642a5d438bc86c1d60b6be539ac8e427f456940a2a115639061070c9086904290611aa3565b6001600160a01b0381165f9081526006602090815260409182902080548351818402810184019094528084526060939283018282801561095157602002820191905f5260205f209081548152602001906001019080831161093d5750505050509050919050565b6113e4611416565b6001600160a01b03811661140d57604051631e4fbdf760e01b81525f6004820152602401610425565b6110f38161145d565b5f546001600160a01b03163314610e055760405163118cdaa760e01b8152336004820152602401610425565b61144a6114ac565b60025f80516020611ac583398151915255565b5f80546001600160a01b038381166001600160a01b0319831681178455604051919092169283917f8be0079c531659141344cd1fd0a4f28419497f9722a3daafe3b4186f6b6457e09190a35050565b5f80516020611ac583398151915254600203610e0557604051633ee5aeb560e01b815260040160405180910390fd5b5f602082840312156114eb575f80fd5b5035919050565b80356001600160a01b0381168114611508575f80fd5b919050565b5f806040838503121561151e575f80fd5b8235915061152e602084016114f2565b90509250929050565b5f81518084525f5b8181101561155b5760208185018101518683018201520161153f565b505f602082860101526020601f19601f83011685010191505092915050565b634e487b7160e01b5f52602160045260245ffd5b600581106115aa57634e487b7160e01b5f52602160045260245ffd5b9052565b60208152815160208201525f60208301516115d460408401826001600160a01b03169052565b5060408301516001600160a01b03811660608401525060608301516001600160a01b038116608084015250608083015160a083015260a08301516101608060c0850152611625610180850183611537565b915060c085015161163960e086018261158e565b5060e085015161010085810191909152850151610120808601919091528501516101406116698187018315159052565b90950151151593019290925250919050565b5f6020828403121561168b575f80fd5b611694826114f2565b9392505050565b602080825282518282018190525f9190848201906040850190845b818110156116d2578351835292840192918401916001016116b6565b50909695505050505050565b5f80604083850312156116ef575f80fd5b6116f8836114f2565b946020939093013593505050565b634e487b7160e01b5f52604160045260245ffd5b5f82601f830112611729575f80fd5b813567ffffffffffffffff8082111561174457611744611706565b604051601f8301601f19908116603f0116810190828211818310171561176c5761176c611706565b81604052838152866020858801011115611784575f80fd5b836020870160208301375f602085830101528094505050505092915050565b5f80604083850312156117b4575f80fd5b6117bd836114f2565b9150602083013567ffffffffffffffff8111156117d8575f80fd5b6117e48582860161171a565b9150509250929050565b8b81526001600160a01b038b811660208301528a81166040830152891660608201526080810188905261016060a082018190525f9061182f8382018a611537565b91505061183f60c083018861158e565b60e0820195909552610100810193909352901515610120830152151561014090910152979650505050505050565b5f806040838503121561187e575f80fd5b82359150602083013567ffffffffffffffff8111156117d8575f80fd5b6020808252600f908201526e105d591a5d081b9bdd08199bdd5b99608a1b604082015260600190565b600181811c908216806118d857607f821691505b6020821081036118f657634e487b7160e01b5f52602260045260245ffd5b50919050565b634e487b7160e01b5f52601160045260245ffd5b5f60018201611921576119216118fc565b5060010190565b601f821115611971575f81815260208120601f850160051c8101602086101561194e5750805b601f850160051c820191505b8181101561196d5782815560010161195a565b5050505b505050565b815167ffffffffffffffff81111561199057611990611706565b6119a48161199e84546118c4565b84611928565b602080601f8311600181146119d7575f84156119c05750858301515b5f19600386901b1c1916600185901b17855561196d565b5f85815260208120601f198616915b82811015611a05578886015182559484019460019091019084016119e6565b5085821015611a2257878501515f19600388901b60f8161c191681555b5050505050600190811b01905550565b838152606060208201525f611a4a6060830185611537565b9050826040830152949350505050565b8082028115828204841417610dee57610dee6118fc565b5f82611a8b57634e487b7160e01b5f52601260045260245ffd5b500490565b81810381811115610dee57610dee6118fc565b604081525f611ab56040830185611537565b9050826020830152939250505056fe9b779b17422d0df92223018b32b4d1fa46e071723d6817e2486d003becc55f00a26469706673582212201835a246ab90aa4a6a2268ce1df4b6c17e9a20bd9e382b9f8d1291fd64cc55a564736f6c63430008140033","linkReferences":{}},"methodIdentifiers":{"DAO_SHARE()":"c421c79e","REVIEWER_SHARE()":"a6cfa1c2","assignReviewer(uint256,address)":"17612670","auditCount()":"0be2e192","audits(uint256)":"b60e73db","completeAudit(uint256)":"110fea20","createAudit(address,string)":"4667219f","daoAudits(address,uint256)":"cd7df8a7","daoFactory()":"48f7f2a3","disputeAudit(uint256,string)":"ec486cf3","getAudit(uint256)":"17bf37a3","getAuditCount()":"6353bde6","getDAOAudits(address)":"f18b226f","getRequesterAudits(address)":"1bd4e1b9","getReviewerAudits(address)":"1fa09b90","owner()":"8da5cb5b","refundAudit(uint256)":"362b6d19","releasePayment(uint256)":"88685cd9","renounceOwnership()":"715018a6","requesterAudits(address,uint256)":"2fc5d0d1","reviewerAudits(address,uint256)":"3e88adb4","transferOwnership(address)":"f2fde38b"},"id":33}