{"abi":[{"type":"constructor","inputs":[{"name":"_dao","type":"address","internalType":"address"}],"stateMutability":"nonpayable"},{"type":"function","name":"DAO_SHARE","inputs":[],"outputs":[{"name":"","type":"uint256","internalType":"uint256"}],"stateMutability":"view"},{"type":"function","name":"DEFAULT_MAX_CONCURRENT_REVIEWS","inputs":[],"outputs":[{"name":"","type":"uint256","internalType":"uint256"}],"stateMutability":"view"},{"type":"function","name":"REVIEWER_SHARE","inputs":[],"outputs":[{"name":"","type":"uint256","internalType":"uint256"}],"stateMutability":"view"},{"type":"function","name":"ROTATION_COOLDOWN","inputs":[],"outputs":[{"name":"","type":"uint256","internalType":"uint256"}],"stateMutability":"view"},{"type":"function","name":"assignNextReviewer","inputs":[{"name":"_auditIndex","type":"uint256","internalType":"uint256"}],"outputs":[],"stateMutability":"nonpayable"},{"type":"function","name":"assignReviewer","inputs":[{"name":"_auditIndex","type":"uint256","internalType":"uint256"},{"name":"_reviewer","type":"address","internalType":"address"}],"outputs":[],"stateMutability":"nonpayable"},{"type":"function","name":"audits","inputs":[{"name":"","type":"uint256","internalType":"uint256"}],"outputs":[{"name":"requester","type":"address","internalType":"address"},{"name":"assignedReviewer","type":"address","internalType":"address"},{"name":"amount","type":"uint256","internalType":"uint256"},{"name":"ipfsHash","type":"string","internalType":"string"},{"name":"status","type":"uint8","internalType":"enum AuditEscrow.AuditStatus"},{"name":"createdAt","type":"uint256","internalType":"uint256"},{"name":"completedAt","type":"uint256","internalType":"uint256"},{"name":"reviewerPaid","type":"bool","internalType":"bool"},{"name":"daoPaid","type":"bool","internalType":"bool"}],"stateMutability":"view"},{"type":"function","name":"claimReview","inputs":[{"name":"_auditIndex","type":"uint256","internalType":"uint256"}],"outputs":[{"name":"","type":"bool","internalType":"bool"}],"stateMutability":"nonpayable"},{"type":"function","name":"completeAudit","inputs":[{"name":"_auditIndex","type":"uint256","internalType":"uint256"}],"outputs":[],"stateMutability":"nonpayable"},{"type":"function","name":"createAudit","inputs":[{"name":"_ipfsHash","type":"string","internalType":"string"}],"outputs":[{"name":"","type":"uint256","internalType":"uint256"}],"stateMutability":"payable"},{"type":"function","name":"dao","inputs":[],"outputs":[{"name":"","type":"address","internalType":"address"}],"stateMutability":"view"},{"type":"function","name":"daoRefundAudit","inputs":[{"name":"_auditIndex","type":"uint256","internalType":"uint256"}],"outputs":[],"stateMutability":"nonpayable"},{"type":"function","name":"daoReleasePayment","inputs":[{"name":"_auditIndex","type":"uint256","internalType":"uint256"}],"outputs":[],"stateMutability":"nonpayable"},{"type":"function","name":"daoRotationPools","inputs":[{"name":"","type":"address","internalType":"address"}],"outputs":[{"name":"currentIndex","type":"uint256","internalType":"uint256"}],"stateMutability":"view"},{"type":"function","name":"disputeAudit","inputs":[{"name":"_auditIndex","type":"uint256","internalType":"uint256"},{"name":"_reason","type":"string","internalType":"string"}],"outputs":[],"stateMutability":"nonpayable"},{"type":"function","name":"emergencyRefundAudit","inputs":[{"name":"_auditIndex","type":"uint256","internalType":"uint256"}],"outputs":[],"stateMutability":"nonpayable"},{"type":"function","name":"emergencyReleasePayment","inputs":[{"name":"_auditIndex","type":"uint256","internalType":"uint256"}],"outputs":[],"stateMutability":"nonpayable"},{"type":"function","name":"getAudit","inputs":[{"name":"_auditIndex","type":"uint256","internalType":"uint256"}],"outputs":[{"name":"","type":"tuple","internalType":"struct AuditEscrow.Audit","components":[{"name":"requester","type":"address","internalType":"address"},{"name":"assignedReviewer","type":"address","internalType":"address"},{"name":"amount","type":"uint256","internalType":"uint256"},{"name":"ipfsHash","type":"string","internalType":"string"},{"name":"status","type":"uint8","internalType":"enum AuditEscrow.AuditStatus"},{"name":"createdAt","type":"uint256","internalType":"uint256"},{"name":"completedAt","type":"uint256","internalType":"uint256"},{"name":"reviewerPaid","type":"bool","internalType":"bool"},{"name":"daoPaid","type":"bool","internalType":"bool"}]}],"stateMutability":"view"},{"type":"function","name":"getAuditCount","inputs":[],"outputs":[{"name":"","type":"uint256","internalType":"uint256"}],"stateMutability":"view"},{"type":"function","name":"getAudits","inputs":[],"outputs":[{"name":"","type":"tuple[]","internalType":"struct AuditEscrow.Audit[]","components":[{"name":"requester","type":"address","internalType":"address"},{"name":"assignedReviewer","type":"address","internalType":"address"},{"name":"amount","type":"uint256","internalType":"uint256"},{"name":"ipfsHash","type":"string","internalType":"string"},{"name":"status","type":"uint8","internalType":"enum AuditEscrow.AuditStatus"},{"name":"createdAt","type":"uint256","internalType":"uint256"},{"name":"completedAt","type":"uint256","internalType":"uint256"},{"name":"reviewerPaid","type":"bool","internalType":"bool"},{"name":"daoPaid","type":"bool","internalType":"bool"}]}],"stateMutability":"view"},{"type":"function","name":"getRequesterAudits","inputs":[{"name":"_requester","type":"address","internalType":"address"}],"outputs":[{"name":"","type":"uint256[]","internalType":"uint256[]"}],"stateMutability":"view"},{"type":"function","name":"getReviewerAudits","inputs":[{"name":"_reviewer","type":"address","internalType":"address"}],"outputs":[{"name":"","type":"uint256[]","internalType":"uint256[]"}],"stateMutability":"view"},{"type":"function","name":"getReviewerProfile","inputs":[{"name":"_reviewer","type":"address","internalType":"address"}],"outputs":[{"name":"","type":"tuple","internalType":"struct AuditEscrow.ReviewerProfile","components":[{"name":"reviewer","type":"address","internalType":"address"},{"name":"activeReviews","type":"uint256","internalType":"uint256"},{"name":"completedReviews","type":"uint256","internalType":"uint256"},{"name":"reputation","type":"uint256","internalType":"uint256"},{"name":"lastAssignment","type":"uint256","internalType":"uint256"},{"name":"isActive","type":"bool","internalType":"bool"},{"name":"maxConcurrentReviews","type":"uint256","internalType":"uint256"}]}],"stateMutability":"view"},{"type":"function","name":"getRotationPool","inputs":[],"outputs":[{"name":"","type":"address[]","internalType":"address[]"}],"stateMutability":"view"},{"type":"function","name":"isReviewerEligible","inputs":[{"name":"_reviewer","type":"address","internalType":"address"}],"outputs":[{"name":"","type":"bool","internalType":"bool"}],"stateMutability":"view"},{"type":"function","name":"joinRotationPool","inputs":[],"outputs":[],"stateMutability":"nonpayable"},{"type":"function","name":"leaveRotationPool","inputs":[],"outputs":[],"stateMutability":"nonpayable"},{"type":"function","name":"owner","inputs":[],"outputs":[{"name":"","type":"address","internalType":"address"}],"stateMutability":"view"},{"type":"function","name":"renounceOwnership","inputs":[],"outputs":[],"stateMutability":"nonpayable"},{"type":"function","name":"requesterAudits","inputs":[{"name":"","type":"address","internalType":"address"},{"name":"","type":"uint256","internalType":"uint256"}],"outputs":[{"name":"","type":"uint256","internalType":"uint256"}],"stateMutability":"view"},{"type":"function","name":"reviewerActiveReviews","inputs":[{"name":"","type":"address","internalType":"address"}],"outputs":[{"name":"","type":"uint256","internalType":"uint256"}],"stateMutability":"view"},{"type":"function","name":"reviewerAudits","inputs":[{"name":"","type":"address","internalType":"address"},{"name":"","type":"uint256","internalType":"uint256"}],"outputs":[{"name":"","type":"uint256","internalType":"uint256"}],"stateMutability":"view"},{"type":"function","name":"reviewerProfiles","inputs":[{"name":"","type":"address","internalType":"address"}],"outputs":[{"name":"reviewer","type":"address","internalType":"address"},{"name":"activeReviews","type":"uint256","internalType":"uint256"},{"name":"completedReviews","type":"uint256","internalType":"uint256"},{"name":"reputation","type":"uint256","internalType":"uint256"},{"name":"lastAssignment","type":"uint256","internalType":"uint256"},{"name":"isActive","type":"bool","internalType":"bool"},{"name":"maxConcurrentReviews","type":"uint256","internalType":"uint256"}],"stateMutability":"view"},{"type":"function","name":"setMaxConcurrentReviews","inputs":[{"name":"_max","type":"uint256","internalType":"uint256"}],"outputs":[],"stateMutability":"nonpayable"},{"type":"function","name":"transferOwnership","inputs":[{"name":"newOwner","type":"address","internalType":"address"}],"outputs":[],"stateMutability":"nonpayable"},{"type":"event","name":"AuditAssigned","inputs":[{"name":"dao","type":"address","indexed":true,"internalType":"address"},{"name":"auditIndex","type":"uint256","indexed":false,"internalType":"uint256"},{"name":"reviewer","type":"address","indexed":true,"internalType":"address"},{"name":"timestamp","type":"uint256","indexed":false,"internalType":"uint256"}],"anonymous":false},{"type":"event","name":"AuditCompleted","inputs":[{"name":"dao","type":"address","indexed":true,"internalType":"address"},{"name":"auditIndex","type":"uint256","indexed":false,"internalType":"uint256"},{"name":"reviewer","type":"address","indexed":true,"internalType":"address"},{"name":"timestamp","type":"uint256","indexed":false,"internalType":"uint256"}],"anonymous":false},{"type":"event","name":"AuditCreated","inputs":[{"name":"dao","type":"address","indexed":true,"internalType":"address"},{"name":"requester","type":"address","indexed":true,"internalType":"address"},{"name":"amount","type":"uint256","indexed":false,"internalType":"uint256"},{"name":"ipfsHash","type":"string","indexed":false,"internalType":"string"},{"name":"timestamp","type":"uint256","indexed":false,"internalType":"uint256"}],"anonymous":false},{"type":"event","name":"AuditDisputed","inputs":[{"name":"dao","type":"address","indexed":true,"internalType":"address"},{"name":"auditIndex","type":"uint256","indexed":false,"internalType":"uint256"},{"name":"disputer","type":"address","indexed":true,"internalType":"address"},{"name":"reason","type":"string","indexed":false,"internalType":"string"},{"name":"timestamp","type":"uint256","indexed":false,"internalType":"uint256"}],"anonymous":false},{"type":"event","name":"AuditRefunded","inputs":[{"name":"dao","type":"address","indexed":true,"internalType":"address"},{"name":"auditIndex","type":"uint256","indexed":false,"internalType":"uint256"},{"name":"requester","type":"address","indexed":true,"internalType":"address"},{"name":"amount","type":"uint256","indexed":false,"internalType":"uint256"},{"name":"timestamp","type":"uint256","indexed":false,"internalType":"uint256"}],"anonymous":false},{"type":"event","name":"JoinedRotationPool","inputs":[{"name":"dao","type":"address","indexed":true,"internalType":"address"},{"name":"reviewer","type":"address","indexed":true,"internalType":"address"}],"anonymous":false},{"type":"event","name":"LeftRotationPool","inputs":[{"name":"dao","type":"address","indexed":true,"internalType":"address"},{"name":"reviewer","type":"address","indexed":true,"internalType":"address"}],"anonymous":false},{"type":"event","name":"OwnershipTransferred","inputs":[{"name":"previousOwner","type":"address","indexed":true,"internalType":"address"},{"name":"newOwner","type":"address","indexed":true,"internalType":"address"}],"anonymous":false},{"type":"event","name":"PaymentReleased","inputs":[{"name":"dao","type":"address","indexed":true,"internalType":"address"},{"name":"auditIndex","type":"uint256","indexed":false,"internalType":"uint256"},{"name":"recipient","type":"address","indexed":true,"internalType":"address"},{"name":"amount","type":"uint256","indexed":false,"internalType":"uint256"},{"name":"recipientType","type":"string","indexed":false,"internalType":"string"},{"name":"timestamp","type":"uint256","indexed":false,"internalType":"uint256"}],"anonymous":false},{"type":"event","name":"ReviewClaimed","inputs":[{"name":"dao","type":"address","indexed":true,"internalType":"address"},{"name":"auditIndex","type":"uint256","indexed":false,"internalType":"uint256"},{"name":"reviewer","type":"address","indexed":true,"internalType":"address"},{"name":"timestamp","type":"uint256","indexed":false,"internalType":"uint256"}],"anonymous":false},{"type":"event","name":"ReviewerAssigned","inputs":[{"name":"dao","type":"address","indexed":true,"internalType":"address"},{"name":"auditIndex","type":"uint256","indexed":false,"internalType":"uint256"},{"name":"reviewer","type":"address","indexed":true,"internalType":"address"}],"anonymous":false},{"type":"event","name":"ReviewerEligibilityUpdated","inputs":[{"name":"reviewer","type":"address","indexed":true,"internalType":"address"},{"name":"activeReviews","type":"uint256","indexed":false,"internalType":"uint256"}],"anonymous":false},{"type":"error","name":"OwnableInvalidOwner","inputs":[{"name":"owner","type":"address","internalType":"address"}]},{"type":"error","name":"OwnableUnauthorizedAccount","inputs":[{"name":"account","type":"address","internalType":"address"}]},{"type":"error","name":"ReentrancyGuardReentrantCall","inputs":[]}],"bytecode":{"object":"0x608060405234801562000010575f80fd5b50604051620032fd380380620032fd8339810160408190526200003391620000fe565b33806200005957604051631e4fbdf760e01b81525f600482015260240160405180910390fd5b6200006481620000af565b5060017f9b779b17422d0df92223018b32b4d1fa46e071723d6817e2486d003becc55f0055600180546001600160a01b0319166001600160a01b03929092169190911790556200012d565b5f80546001600160a01b038381166001600160a01b0319831681178455604051919092169283917f8be0079c531659141344cd1fd0a4f28419497f9722a3daafe3b4186f6b6457e09190a35050565b5f602082840312156200010f575f80fd5b81516001600160a01b038116811462000126575f80fd5b9392505050565b6131c2806200013b5f395ff3fe6080604052600436106101fc575f3560e01c806367daec2c11610113578063b60e73db1161009d578063dd9660891161006d578063dd966089146106c2578063ec486cf3146106d6578063ee439c98146106f5578063f2fde38b1461070a578063fc624a4314610729575f80fd5b8063b60e73db146105b6578063b87fa3d4146105ea578063c2b0ee7a1461068f578063c421c79e146106ae575f80fd5b80638da5cb5b116100e35780638da5cb5b1461053357806399a677d11461054f57806399e759d114610563578063a6cfa1c21461058e578063abf09b31146105a2575f80fd5b806367daec2c146104bf57806370330e4b146104d2578063715018a6146104f1578063739d92fb14610505575f80fd5b80632f9740d7116101945780633e88adb4116101645780633e88adb4146104155780634162169f14610434578063523ec1d01461046b5780636353bde61461048c57806363fc473c146104a0575f80fd5b80632f9740d71461031f5780632fc5d0d11461039a5780633a54e100146103c75780633e3f1b98146103e6575f80fd5b80631bd4e1b9116101cf5780631bd4e1b9146102965780631fa09b90146102c257806323c8bbda146102e15780632b7bb51714610300575f80fd5b80630e1b47ed14610200578063110fea201461022a578063176126701461024b57806317bf37a31461026a575b5f80fd5b34801561020b575f80fd5b50610214610748565b6040516102219190612a94565b60405180910390f35b348015610235575f80fd5b50610249610244366004612ae0565b6107bb565b005b348015610256575f80fd5b50610249610265366004612b0d565b610945565b348015610275575f80fd5b50610289610284366004612ae0565b610bcb565b6040516102219190612c4e565b3480156102a1575f80fd5b506102b56102b0366004612c60565b610d8c565b6040516102219190612c79565b3480156102cd575f80fd5b506102b56102dc366004612c60565b610df5565b3480156102ec575f80fd5b506102496102fb366004612ae0565b610e5c565b34801561030b575f80fd5b5061024961031a366004612ae0565b611174565b34801561032a575f80fd5b5061033e610339366004612c60565b6114ea565b604051610221919081516001600160a01b031681526020808301519082015260408083015190820152606080830151908201526080808301519082015260a08281015115159082015260c0918201519181019190915260e00190565b3480156103a5575f80fd5b506103b96103b4366004612cb0565b61159f565b604051908152602001610221565b3480156103d2575f80fd5b506102496103e1366004612ae0565b6115ca565b3480156103f1575f80fd5b50610405610400366004612ae0565b61177f565b6040519015158152602001610221565b348015610420575f80fd5b506103b961042f366004612cb0565b611a7b565b34801561043f575f80fd5b50600154610453906001600160a01b031681565b6040516001600160a01b039091168152602001610221565b348015610476575f80fd5b5061047f611a94565b6040516102219190612cd8565b348015610497575f80fd5b506002546103b9565b3480156104ab575f80fd5b506104056104ba366004612c60565b611c1b565b6103b96104cd366004612dd5565b611c69565b3480156104dd575f80fd5b506102496104ec366004612ae0565b611f34565b3480156104fc575f80fd5b50610249611ffb565b348015610510575f80fd5b506103b961051f366004612c60565b60076020525f908152604090206001015481565b34801561053e575f80fd5b505f546001600160a01b0316610453565b34801561055a575f80fd5b506103b9600381565b34801561056e575f80fd5b506103b961057d366004612c60565b60066020525f908152604090205481565b348015610599575f80fd5b506103b9605081565b3480156105ad575f80fd5b5061024961200e565b3480156105c1575f80fd5b506105d56105d0366004612ae0565b612186565b60405161022199989796959493929190612e0f565b3480156105f5575f80fd5b5061064e610604366004612c60565b600560208190525f918252604090912080546001820154600283015460038401546004850154958501546006909501546001600160a01b03909416959294919390929160ff169087565b604080516001600160a01b03909816885260208801969096529486019390935260608501919091526080840152151560a083015260c082015260e001610221565b34801561069a575f80fd5b506102496106a9366004612ae0565b61227e565b3480156106b9575f80fd5b506103b9601481565b3480156106cd575f80fd5b5061024961232a565b3480156106e1575f80fd5b506102496106f0366004612e7c565b612467565b348015610700575f80fd5b506103b9610e1081565b348015610715575f80fd5b50610249610724366004612c60565b6125e9565b348015610734575f80fd5b50610249610743366004612ae0565b612653565b6001546001600160a01b03165f908152600760209081526040918290208054835181840281018401909452808452606093928301828280156107b157602002820191905f5260205f20905b81546001600160a01b03168152600190910190602001808311610793575b5050505050905090565b60025481106107e55760405162461bcd60e51b81526004016107dc90612ec0565b60405180910390fd5b5f600282815481106107f9576107f9612ef7565b5f91825260209091206008909102019050600160048083015460ff169081111561082557610825612b7a565b146108685760405162461bcd60e51b81526020600482015260136024820152724175646974206e6f7420696e2072657669657760681b60448201526064016107dc565b60018101546001600160a01b031633146108d05760405162461bcd60e51b815260206004820152602360248201527f4f6e6c792061737369676e65642072657669657765722063616e20636f6d706c60448201526265746560e81b60648201526084016107dc565b60048101805460ff191660021790554260068201556108f033600161275b565b6001818101549054604080518581524260208201526001600160a01b0393841693909216917f8a710282c30b4a3be576da2130b62c88589cacc39458ad68b43e43a3728a2bcc91015b60405180910390a35050565b60025482106109665760405162461bcd60e51b81526004016107dc90612ec0565b5f6002838154811061097a5761097a612ef7565b5f91825260208220600890910201915060048083015460ff16908111156109a3576109a3612b7a565b146109e45760405162461bcd60e51b81526020600482015260116024820152704175646974206e6f742070656e64696e6760781b60448201526064016107dc565b6001546001600160a01b03163314610a3e5760405162461bcd60e51b815260206004820152601c60248201527f4f6e6c792044414f2063616e2061737369676e2072657669657765720000000060448201526064016107dc565b6001600160a01b038216610a945760405162461bcd60e51b815260206004820152601860248201527f496e76616c69642072657669657765722061646472657373000000000000000060448201526064016107dc565b600181810180546001600160a01b0319166001600160a01b0385169081179091556004808401805460ff1916841790555f9182526020908152604082208054938401815582528120909101849055610aed90839061275b565b600154604080518581524260208201526001600160a01b038581169316917ff173bb801bfadfca82654f0444ddd21cfc87ead9b87a6cfe0bbf336e2202b697910160405180910390a36001546040518481526001600160a01b038481169216907fd134298c1aee5ed8c127c5a4f92de70223c5f7082329391a9b0d4c0dfecca3669060200160405180910390a36001600160a01b0382165f818152600660209081526040918290205491519182527f651a66722b73f353abd943e59cd561150cafdcbb587dc96f1926e18ef35dff2f910160405180910390a2505050565b60408051610120810182525f808252602082018190529181018290526060808201526080810182905260a0810182905260c0810182905260e081018290526101008101919091526002548210610c335760405162461bcd60e51b81526004016107dc90612ec0565b60028281548110610c4657610c46612ef7565b5f9182526020918290206040805161012081018252600890930290910180546001600160a01b03908116845260018201541693830193909352600283015490820152600382018054919291606084019190610ca090612f0b565b80601f0160208091040260200160405190810160405280929190818152602001828054610ccc90612f0b565b8015610d175780601f10610cee57610100808354040283529160200191610d17565b820191905f5260205f20905b815481529060010190602001808311610cfa57829003601f168201915b505050918352505060048281015460209092019160ff1690811115610d3e57610d3e612b7a565b6004811115610d4f57610d4f612b7a565b8152600582015460208201526006820154604082015260079091015460ff8082161515606084015261010090910416151560809091015292915050565b6001600160a01b0381165f90815260036020908152604091829020805483518184028101840190945280845260609392830182828015610de957602002820191905f5260205f20905b815481526020019060010190808311610dd5575b50505050509050919050565b6001600160a01b0381165f90815260046020908152604091829020805483518184028101840190945280845260609392830182828015610de957602002820191905f5260205f2090815481526020019060010190808311610dd55750505050509050919050565b6002548110610e7d5760405162461bcd60e51b81526004016107dc90612ec0565b5f60028281548110610e9157610e91612ef7565b5f91825260209091206008909102019050600260048083015460ff1690811115610ebd57610ebd612b7a565b14610f005760405162461bcd60e51b8152602060048201526013602482015272105d591a5d081b9bdd0818dbdb5c1b195d1959606a1b60448201526064016107dc565b6001546001600160a01b03163314610f6f5760405162461bcd60e51b815260206004820152602c60248201527f4f6e6c792044414f2063616e2072656c65617365207061796d656e747320666f60448201526b72206974732061756469747360a01b60648201526084016107dc565b6007810154610100900460ff16158015610f8e5750600781015460ff16155b610fd65760405162461bcd60e51b815260206004820152601960248201527814185e5b595b9d1cc8185b1c9958591e481c995b19585cd959603a1b60448201526064016107dc565b5f606460508360020154610fea9190612f51565b610ff49190612f82565b90505f8183600201546110079190612f95565b60078401805461ffff191661010117905560018401546040519192506001600160a01b0316906108fc8415029084905f818181858888f19350505050158015611052573d5f803e3d5ffd5b506001546040516001600160a01b039091169082156108fc029083905f818181858888f1935050505015801561108a573d5f803e3d5ffd5b50600183810154905460408051878152602081018690526080818301819052600890820152673932bb34b2bbb2b960c11b60a082015242606082015290516001600160a01b0393841693909216917f7ad7a8ed2e89cc99acfb67f5b3efeb9c7f1a178a70bd800e123166f5210a81f49181900360c00190a3600154604080518681526020810184905260808183018190526003908201526264616f60e81b60a082015242606082015290516001600160a01b039092169182917f7ad7a8ed2e89cc99acfb67f5b3efeb9c7f1a178a70bd800e123166f5210a81f4919081900360c00190a350505050565b6001546001600160a01b03163381146111cf5760405162461bcd60e51b815260206004820152601f60248201527f4f6e6c792044414f2063616e2063616c6c20746869732066756e6374696f6e0060448201526064016107dc565b60025482106111f05760405162461bcd60e51b81526004016107dc90612ec0565b5f6002838154811061120457611204612ef7565b5f91825260208220600890910201915060048083015460ff169081111561122d5761122d612b7a565b1461126e5760405162461bcd60e51b81526020600482015260116024820152704175646974206e6f742070656e64696e6760781b60448201526064016107dc565b6001546001600160a01b03165f90815260076020526040902080546112cc5760405162461bcd60e51b8152602060048201526014602482015273139bc81c995d9a595dd95c9cc81a5b881c1bdbdb60621b60448201526064016107dc565b5f5b81548110156114a157815460018301545f91906112ec908490612fa8565b6112f69190612fbb565b90505f835f01828154811061130d5761130d612ef7565b5f918252602090912001546001600160a01b0316905061132c81611c1b565b801561135e57506001600160a01b0381165f90815260038501602052604090205461135a90610e1090612fa8565b4210155b1561148c57600185810180546001600160a01b0319166001600160a01b03841617905560048601805460ff191682800217905550835461139f836001612fa8565b6113a99190612fbb565b6001808601919091556001600160a01b0382165f908152600386016020908152604080832042905560048252822080549384018155825281209091018890556113f390829061275b565b6001546040518881526001600160a01b038381169216907fd134298c1aee5ed8c127c5a4f92de70223c5f7082329391a9b0d4c0dfecca3669060200160405180910390a36001600160a01b0381165f818152600660209081526040918290205491519182527f651a66722b73f353abd943e59cd561150cafdcbb587dc96f1926e18ef35dff2f910160405180910390a250505050505050565b5050808061149990612fce565b9150506112ce565b5060405162461bcd60e51b815260206004820152601d60248201527f4e6f20656c696769626c652072657669657765727320696e20706f6f6c00000060448201526064016107dc565b61152e6040518060e001604052805f6001600160a01b031681526020015f81526020015f81526020015f81526020015f81526020015f151581526020015f81525090565b506001600160a01b039081165f90815260056020818152604092839020835160e08101855281549095168552600181015491850191909152600281015492840192909252600382015460608401526004820154608084015281015460ff16151560a08301526006015460c082015290565b6003602052815f5260405f2081815481106115b8575f80fd5b905f5260205f20015f91509150505481565b6115d261286e565b60025481106115f35760405162461bcd60e51b81526004016107dc90612ec0565b5f6002828154811061160757611607612ef7565b5f91825260209091206008909102019050600360048083015460ff169081111561163357611633612b7a565b146116755760405162461bcd60e51b8152602060048201526012602482015271105d591a5d081b9bdd08191a5cdc1d5d195960721b60448201526064016107dc565b6007810154610100900460ff161580156116945750600781015460ff16155b6116dc5760405162461bcd60e51b815260206004820152601960248201527814185e5b595b9d1cc8185b1c9958591e481c995b19585cd959603a1b60448201526064016107dc565b6004818101805460ff19169091179055805460028201546040516001600160a01b03909216916108fc82150291905f818181858888f19350505050158015611726573d5f803e3d5ffd5b508054600154600283015460408051868152602081019290925242908201526001600160a01b0392831692909116907f830d18fc0c5e71592ac59ee16a5cb910328d49575e32a169396c446339ef39e190606001610939565b600154604051637be5d8d960e11b81523360048201525f916001600160a01b031690819063f7cbb1b290602401602060405180830381865afa1580156117c7573d5f803e3d5ffd5b505050506040513d601f19601f820116820180604052508101906117eb9190612fe6565b6118075760405162461bcd60e51b81526004016107dc90613005565b61181033611c1b565b6118545760405162461bcd60e51b81526020600482015260156024820152745265766965776572206e6f7420656c696769626c6560581b60448201526064016107dc565b60025483106118755760405162461bcd60e51b81526004016107dc90612ec0565b5f6002848154811061188957611889612ef7565b5f91825260208220600890910201915060048083015460ff16908111156118b2576118b2612b7a565b146118f65760405162461bcd60e51b81526020600482015260146024820152734175646974206973206e6f742070656e64696e6760601b60448201526064016107dc565b60018101546001600160a01b0316156119515760405162461bcd60e51b815260206004820152601a60248201527f417564697420616c72656164792068617320726576696577657200000000000060448201526064016107dc565b600180820180546001600160a01b0319163317905560048201805460ff191682800217905550335f81815260046020908152604082208054600181018255908352908220018690556119a3919061275b565b6001546040805186815242602082015233926001600160a01b0316917f2939dfb557c28cd9363ff77ecc1c5421f9e185a70b8f9d2ed9840705f517a2a2910160405180910390a360015460405185815233916001600160a01b0316907fd134298c1aee5ed8c127c5a4f92de70223c5f7082329391a9b0d4c0dfecca3669060200160405180910390a3335f818152600660209081526040918290205491519182527f651a66722b73f353abd943e59cd561150cafdcbb587dc96f1926e18ef35dff2f910160405180910390a260019250505b50919050565b6004602052815f5260405f2081815481106115b8575f80fd5b60606002805480602002602001604051908101604052809291908181526020015f905b82821015611c12575f84815260209081902060408051610120810182526008860290920180546001600160a01b03908116845260018201541693830193909352600283015490820152600382018054919291606084019190611b1890612f0b565b80601f0160208091040260200160405190810160405280929190818152602001828054611b4490612f0b565b8015611b8f5780601f10611b6657610100808354040283529160200191611b8f565b820191905f5260205f20905b815481529060010190602001808311611b7257829003601f168201915b505050918352505060048281015460209092019160ff1690811115611bb657611bb6612b7a565b6004811115611bc757611bc7612b7a565b815260058201546020808301919091526006830154604083015260079092015460ff808216151560608401526101009091041615156080909101529082526001929092019101611ab7565b50505050905090565b6001600160a01b038082165f90815260056020526040812080549192909116611c475750600192915050565b80600601548160010154108015611c625750600581015460ff165b9392505050565b5f611c7261289a565b5f3411611cb55760405162461bcd60e51b8152602060048201526011602482015270135d5cdd081cd95b99081c185e5b595b9d607a1b60448201526064016107dc565b5f825111611cfa5760405162461bcd60e51b815260206004820152601260248201527112541194c81a185cda081c995c5d5a5c995960721b60448201526064016107dc565b6002805460408051610120810182523381525f602082018181523493830193845260608301888152608084018390524260a085015260c0840183905260e084018390526101008401839052600186018755959091528151600885027f405787fa12a823e0f2b7631cc41b3ba8828b3321ca811111fa75cd3aa3bb5ace810180546001600160a01b03199081166001600160a01b0394851617825593517f405787fa12a823e0f2b7631cc41b3ba8828b3321ca811111fa75cd3aa3bb5acf8301805490951693169290921790925592517f405787fa12a823e0f2b7631cc41b3ba8828b3321ca811111fa75cd3aa3bb5ad08201559351929390927f405787fa12a823e0f2b7631cc41b3ba8828b3321ca811111fa75cd3aa3bb5ad190910190611e22908261307f565b506080820151816004015f6101000a81548160ff02191690836004811115611e4c57611e4c612b7a565b021790555060a0820151600582015560c0820151600682015560e0820151600790910180546101009384015161ffff1990911692151561ff00191692909217911515909202179055335f81815260036020908152604080832080546001818101835591855292909320909101849055905490516001600160a01b03909116907f76c1d824330bff2382df8fd724aa1a3e52bb06e3f2d3ba14cb0f2c99d0682eb990611efc9034908890429061313b565b60405180910390a39050611f2f60017f9b779b17422d0df92223018b32b4d1fa46e071723d6817e2486d003becc55f0055565b919050565b335f90815260056020526040902080546001600160a01b0316611f995760405162461bcd60e51b815260206004820152601a60248201527f52657669657765722070726f66696c65206e6f7420666f756e6400000000000060448201526064016107dc565b5f82118015611fa95750600a8211155b611ff55760405162461bcd60e51b815260206004820152601e60248201527f496e76616c6964206d617820636f6e63757272656e742072657669657773000060448201526064016107dc565b60060155565b61200361286e565b61200c5f6128c8565b565b600154604051637be5d8d960e11b81523360048201526001600160a01b0390911690819063f7cbb1b290602401602060405180830381865afa158015612056573d5f803e3d5ffd5b505050506040513d601f19601f8201168201806040525081019061207a9190612fe6565b6120965760405162461bcd60e51b81526004016107dc90613005565b6001546001600160a01b03165f90815260076020908152604080832033845260020190915290205460ff16156121005760405162461bcd60e51b815260206004820152600f60248201526e105b1c9958591e481a5b881c1bdbdb608a1b60448201526064016107dc565b600180546001600160a01b039081165f908152600760209081526040808320805480870182558185528385200180546001600160a01b0319163390811790915580855260028201909352818420805460ff19168717905594549051919316917f88cadee4905dedda1d93fe230f7d2857ce570639fb64b5f020dcfdd7eb3e062491a35050565b60028181548110612195575f80fd5b5f91825260209091206008909102018054600182015460028301546003840180546001600160a01b0394851696509290931693909290916121d590612f0b565b80601f016020809104026020016040519081016040528092919081815260200182805461220190612f0b565b801561224c5780601f106122235761010080835404028352916020019161224c565b820191905f5260205f20905b81548152906001019060200180831161222f57829003601f168201915b50505050600483015460058401546006850154600790950154939460ff92831694919350918082169161010090041689565b61228661286e565b60025481106122a75760405162461bcd60e51b81526004016107dc90612ec0565b5f600282815481106122bb576122bb612ef7565b5f91825260209091206008909102019050600260048083015460ff16908111156122e7576122e7612b7a565b14610f6f5760405162461bcd60e51b8152602060048201526013602482015272105d591a5d081b9bdd0818dbdb5c1b195d1959606a1b60448201526064016107dc565b600154604051637be5d8d960e11b81523360048201526001600160a01b0390911690819063f7cbb1b290602401602060405180830381865afa158015612372573d5f803e3d5ffd5b505050506040513d601f19601f820116820180604052508101906123969190612fe6565b6123b25760405162461bcd60e51b81526004016107dc90613005565b6001546001600160a01b03165f90815260076020908152604080832033845260020190915290205460ff166124175760405162461bcd60e51b815260206004820152600b60248201526a139bdd081a5b881c1bdbdb60aa1b60448201526064016107dc565b60015461242d906001600160a01b031633612917565b60015460405133916001600160a01b0316907f02e4121ed0ac3b427e6e5c781e0d4271591e471a6d9f0663f41c21373ef97908905f90a350565b60025482106124885760405162461bcd60e51b81526004016107dc90612ec0565b5f6002838154811061249c5761249c612ef7565b5f91825260209091206008909102019050600160048083015460ff16908111156124c8576124c8612b7a565b1461250b5760405162461bcd60e51b81526020600482015260136024820152724175646974206e6f7420696e2072657669657760681b60448201526064016107dc565b80546001600160a01b031633148061252f575060018101546001600160a01b031633145b61258a5760405162461bcd60e51b815260206004820152602660248201527f4f6e6c7920726571756573746572206f722072657669657765722063616e206460448201526569737075746560d01b60648201526084016107dc565b60048101805460ff1916600317905560015460405133916001600160a01b0316907fe78c65ab90af3b15e3bedf1f87adf191bc87003aa49ff87c1f4137af3a9c6df5906125dc9087908790429061313b565b60405180910390a3505050565b6125f161286e565b6001600160a01b0381166126475760405162461bcd60e51b815260206004820181905260248201527f4e6577206f776e65722063616e6e6f74206265207a65726f206164647265737360448201526064016107dc565b612650816128c8565b50565b60025481106126745760405162461bcd60e51b81526004016107dc90612ec0565b5f6002828154811061268857612688612ef7565b5f91825260209091206008909102019050600360048083015460ff16908111156126b4576126b4612b7a565b146126f65760405162461bcd60e51b8152602060048201526012602482015271105d591a5d081b9bdd08191a5cdc1d5d195960721b60448201526064016107dc565b6001546001600160a01b031633146116755760405162461bcd60e51b815260206004820152602260248201527f4f6e6c792044414f2063616e20726566756e6420697473206f776e2061756469604482015261747360f01b60648201526084016107dc565b6001600160a01b038083165f90815260056020526040902080549091166127cd5780546001600160a01b0319166001600160a01b0384161781555f6001808301829055600283018290556064600380850191909155600484019290925560058301805460ff1916909117905560068201555b811561281e57600181018054905f6127e483613163565b9091555050600281018054905f6127fa83612fce565b9190505550600a816003015f8282546128139190612fa8565b9091555061283b9050565b600181018054905f61282f83612fce565b90915550504260048201555b60058101805460ff1916600190811790915501546001600160a01b039092165f9081526006602052604090209190915550565b5f546001600160a01b0316331461200c5760405163118cdaa760e01b81523360048201526024016107dc565b6128a2612a52565b60027f9b779b17422d0df92223018b32b4d1fa46e071723d6817e2486d003becc55f0055565b5f80546001600160a01b038381166001600160a01b0319831681178455604051919092169283917f8be0079c531659141344cd1fd0a4f28419497f9722a3daafe3b4186f6b6457e09190a35050565b6001600160a01b0382165f908152600760205260408120905b8154811015612a2b57826001600160a01b0316825f01828154811061295757612957612ef7565b5f918252602090912001546001600160a01b031603612a19578154829061298090600190612f95565b8154811061299057612990612ef7565b5f9182526020909120015482546001600160a01b03909116908390839081106129bb576129bb612ef7565b5f91825260209091200180546001600160a01b0319166001600160a01b039290921691909117905581548290806129f4576129f4613178565b5f8281526020902081015f1990810180546001600160a01b0319169055019055612a2b565b80612a2381612fce565b915050612930565b506001600160a01b039091165f908152600290910160205260409020805460ff1916905550565b7f9b779b17422d0df92223018b32b4d1fa46e071723d6817e2486d003becc55f005460020361200c57604051633ee5aeb560e01b815260040160405180910390fd5b602080825282518282018190525f9190848201906040850190845b81811015612ad45783516001600160a01b031683529284019291840191600101612aaf565b50909695505050505050565b5f60208284031215612af0575f80fd5b5035919050565b80356001600160a01b0381168114611f2f575f80fd5b5f8060408385031215612b1e575f80fd5b82359150612b2e60208401612af7565b90509250929050565b5f81518084525f5b81811015612b5b57602081850181015186830182015201612b3f565b505f602082860101526020601f19601f83011685010191505092915050565b634e487b7160e01b5f52602160045260245ffd5b60058110612baa57634e487b7160e01b5f52602160045260245ffd5b9052565b5f61012060018060a01b0383511684526020830151612bd860208601826001600160a01b03169052565b50604083015160408501526060830151816060860152612bfa82860182612b37565b9150506080830151612c0f6080860182612b8e565b5060a083015160a085015260c083015160c085015260e0830151612c3760e086018215159052565b506101009283015115159390920192909252919050565b602081525f611c626020830184612bae565b5f60208284031215612c70575f80fd5b611c6282612af7565b602080825282518282018190525f9190848201906040850190845b81811015612ad457835183529284019291840191600101612c94565b5f8060408385031215612cc1575f80fd5b612cca83612af7565b946020939093013593505050565b5f602080830181845280855180835260408601915060408160051b87010192508387015f5b82811015612d2b57603f19888603018452612d19858351612bae565b94509285019290850190600101612cfd565b5092979650505050505050565b634e487b7160e01b5f52604160045260245ffd5b5f82601f830112612d5b575f80fd5b813567ffffffffffffffff80821115612d7657612d76612d38565b604051601f8301601f19908116603f01168101908282118183101715612d9e57612d9e612d38565b81604052838152866020858801011115612db6575f80fd5b836020870160208301375f602085830101528094505050505092915050565b5f60208284031215612de5575f80fd5b813567ffffffffffffffff811115612dfb575f80fd5b612e0784828501612d4c565b949350505050565b6001600160a01b038a811682528916602082015260408101889052610120606082018190525f90612e428382018a612b37565b915050612e526080830188612b8e565b60a082019590955260c081019390935290151560e083015215156101009091015295945050505050565b5f8060408385031215612e8d575f80fd5b82359150602083013567ffffffffffffffff811115612eaa575f80fd5b612eb685828601612d4c565b9150509250929050565b60208082526019908201527f417564697420696e646578206f7574206f6620626f756e647300000000000000604082015260600190565b634e487b7160e01b5f52603260045260245ffd5b600181811c90821680612f1f57607f821691505b602082108103611a7557634e487b7160e01b5f52602260045260245ffd5b634e487b7160e01b5f52601160045260245ffd5b8082028115828204841417612f6857612f68612f3d565b92915050565b634e487b7160e01b5f52601260045260245ffd5b5f82612f9057612f90612f6e565b500490565b81810381811115612f6857612f68612f3d565b80820180821115612f6857612f68612f3d565b5f82612fc957612fc9612f6e565b500690565b5f60018201612fdf57612fdf612f3d565b5060010190565b5f60208284031215612ff6575f80fd5b81518015158114611c62575f80fd5b6020808252601290820152712737ba1030902220a7903932bb34b2bbb2b960711b604082015260600190565b601f82111561307a575f81815260208120601f850160051c810160208610156130575750805b601f850160051c820191505b8181101561307657828155600101613063565b5050505b505050565b815167ffffffffffffffff81111561309957613099612d38565b6130ad816130a78454612f0b565b84613031565b602080601f8311600181146130e0575f84156130c95750858301515b5f19600386901b1c1916600185901b178555613076565b5f85815260208120601f198616915b8281101561310e578886015182559484019460019091019084016130ef565b508582101561312b57878501515f19600388901b60f8161c191681555b5050505050600190811b01905550565b838152606060208201525f6131536060830185612b37565b9050826040830152949350505050565b5f8161317157613171612f3d565b505f190190565b634e487b7160e01b5f52603160045260245ffdfea264697066735822122043e2218e23dea701ca02bf16f020431b3cc68fe97098446cb9ad64a10840707664736f6c63430008140033","linkReferences":{}},"methodIdentifiers":{"DAO_SHARE()":"c421c79e","DEFAULT_MAX_CONCURRENT_REVIEWS()":"99a677d1","REVIEWER_SHARE()":"a6cfa1c2","ROTATION_COOLDOWN()":"ee439c98","assignNextReviewer(uint256)":"2b7bb517","assignReviewer(uint256,address)":"17612670","audits(uint256)":"b60e73db","claimReview(uint256)":"3e3f1b98","completeAudit(uint256)":"110fea20","createAudit(string)":"67daec2c","dao()":"4162169f","daoRefundAudit(uint256)":"fc624a43","daoReleasePayment(uint256)":"23c8bbda","daoRotationPools(address)":"739d92fb","disputeAudit(uint256,string)":"ec486cf3","emergencyRefundAudit(uint256)":"3a54e100","emergencyReleasePayment(uint256)":"c2b0ee7a","getAudit(uint256)":"17bf37a3","getAuditCount()":"6353bde6","getAudits()":"523ec1d0","getRequesterAudits(address)":"1bd4e1b9","getReviewerAudits(address)":"1fa09b90","getReviewerProfile(address)":"2f9740d7","getRotationPool()":"0e1b47ed","isReviewerEligible(address)":"63fc473c","joinRotationPool()":"abf09b31","leaveRotationPool()":"dd966089","owner()":"8da5cb5b","renounceOwnership()":"715018a6","requesterAudits(address,uint256)":"2fc5d0d1","reviewerActiveReviews(address)":"99e759d1","reviewerAudits(address,uint256)":"3e88adb4","reviewerProfiles(address)":"b87fa3d4","setMaxConcurrentReviews(uint256)":"70330e4b","transferOwnership(address)":"f2fde38b"},"id":35}