{"abi":[{"type":"constructor","inputs":[{"name":"_initialOwner","type":"address","internalType":"address"}],"stateMutability":"nonpayable"},{"type":"function","name":"createDAO","inputs":[{"name":"_name","type":"string","internalType":"string"},{"name":"_symbol","type":"string","internalType":"string"},{"name":"_initialReviewers","type":"address[]","internalType":"address[]"},{"name":"_description","type":"string","internalType":"string"}],"outputs":[{"name":"daoAddress","type":"address","internalType":"address"}],"stateMutability":"nonpayable"},{"type":"function","name":"daoCount","inputs":[],"outputs":[{"name":"","type":"uint256","internalType":"uint256"}],"stateMutability":"view"},{"type":"function","name":"daoIdToAddress","inputs":[{"name":"","type":"uint256","internalType":"uint256"}],"outputs":[{"name":"","type":"address","internalType":"address"}],"stateMutability":"view"},{"type":"function","name":"daoList","inputs":[{"name":"","type":"uint256","internalType":"uint256"}],"outputs":[{"name":"","type":"address","internalType":"address"}],"stateMutability":"view"},{"type":"function","name":"getAllDAOs","inputs":[],"outputs":[{"name":"","type":"address[]","internalType":"address[]"}],"stateMutability":"view"},{"type":"function","name":"getDAOAddress","inputs":[{"name":"_daoId","type":"uint256","internalType":"uint256"}],"outputs":[{"name":"","type":"address","internalType":"address"}],"stateMutability":"view"},{"type":"function","name":"getDAOCount","inputs":[],"outputs":[{"name":"","type":"uint256","internalType":"uint256"}],"stateMutability":"view"},{"type":"function","name":"isDAO","inputs":[{"name":"","type":"address","internalType":"address"}],"outputs":[{"name":"","type":"bool","internalType":"bool"}],"stateMutability":"view"},{"type":"function","name":"owner","inputs":[],"outputs":[{"name":"","type":"address","internalType":"address"}],"stateMutability":"view"},{"type":"function","name":"renounceOwnership","inputs":[],"outputs":[],"stateMutability":"nonpayable"},{"type":"function","name":"transferOwnership","inputs":[{"name":"newOwner","type":"address","internalType":"address"}],"outputs":[],"stateMutability":"nonpayable"},{"type":"event","name":"DAOCreated","inputs":[{"name":"daoId","type":"uint256","indexed":true,"internalType":"uint256"},{"name":"daoAddress","type":"address","indexed":true,"internalType":"address"},{"name":"name","type":"string","indexed":false,"internalType":"string"},{"name":"creator","type":"address","indexed":true,"internalType":"address"},{"name":"createdAt","type":"uint256","indexed":false,"internalType":"uint256"}],"anonymous":false},{"type":"event","name":"OwnershipTransferred","inputs":[{"name":"previousOwner","type":"address","indexed":true,"internalType":"address"},{"name":"newOwner","type":"address","indexed":true,"internalType":"address"}],"anonymous":false},{"type":"error","name":"OwnableInvalidOwner","inputs":[{"name":"owner","type":"address","internalType":"address"}]},{"type":"error","name":"OwnableUnauthorizedAccount","inputs":[{"name":"account","type":"address","internalType":"address"}]}],"bytecode":{"object":"0x608060405234801561000f575f80fd5b50604051612ab8380380612ab883398101604081905261002e916100bb565b806001600160a01b03811661005c57604051631e4fbdf760e01b81525f600482015260240160405180910390fd5b6100658161006c565b50506100e8565b5f80546001600160a01b038381166001600160a01b0319831681178455604051919092169283917f8be0079c531659141344cd1fd0a4f28419497f9722a3daafe3b4186f6b6457e09190a35050565b5f602082840312156100cb575f80fd5b81516001600160a01b03811681146100e1575f80fd5b9392505050565b6129c3806100f55f395ff3fe608060405234801562000010575f80fd5b5060043610620000b4575f3560e01c806350435fa4116200007757806350435fa41462000146578063715018a6146200017c57806378ca0b4814620001885780638da5cb5b14620001b3578063d01cf41914620001c4578063f2fde38b14620001ce575f80fd5b80631abf42db14620000b857806325c4e85314620000ec57806337dd27f814620001035780633a479fb8146200011a5780633cb2c68a146200012d575b5f80fd5b620000cf620000c9366004620006b7565b620001e5565b6040516001600160a01b0390911681526020015b60405180910390f35b620000cf620000fd366004620007da565b62000403565b620000cf62000114366004620007da565b62000470565b6001545b604051908152602001620000e3565b6200013762000499565b604051620000e3919062000836565b6200016b6200015736600462000851565b60046020525f908152604090205460ff1681565b6040519015158152602001620000e3565b62000186620004fb565b005b620000cf62000199366004620007da565b60036020525f90815260409020546001600160a01b031681565b5f546001600160a01b0316620000cf565b6200011e60015481565b62000186620001df36600462000851565b62000512565b5f808551116200023c5760405162461bcd60e51b815260206004820152601860248201527f44414f206e616d652063616e6e6f7420626520656d707479000000000000000060448201526064015b60405180910390fd5b5f8451116200028e5760405162461bcd60e51b815260206004820152601a60248201527f44414f2073796d626f6c2063616e6e6f7420626520656d707479000000000000604482015260640162000233565b5f835111620002e05760405162461bcd60e51b815260206004820152601e60248201527f4174206c65617374206f6e652072657669657765722072657175697265640000604482015260640162000233565b60018054905f620002f1836200086d565b91905055505f60015490508585858533856040516200031090620005d2565b6200032196959493929190620008d7565b604051809103905ff0801580156200033b573d5f803e3d5ffd5b505f82815260036020908152604080832080546001600160a01b0386166001600160a01b031991821681179092556002805460018181019092557f405787fa12a823e0f2b7631cc41b3ba8828b3321ca811111fa75cd3aa3bb5ace0180549092168317909155818552600490935292819020805460ff191690921790915551919350339183907f17d89f39c3c4452f84130324e49bc1c0028758c0ae1b78bdcb33a43aa0c4312890620003f2908b9042906200094a565b60405180910390a450949350505050565b5f80821180156200041657506001548211155b620004555760405162461bcd60e51b815260206004820152600e60248201526d125b9d985b1a5908111053c8125160921b604482015260640162000233565b505f908152600360205260409020546001600160a01b031690565b6002818154811062000480575f80fd5b5f918252602090912001546001600160a01b0316905081565b60606002805480602002602001604051908101604052809291908181526020018280548015620004f157602002820191905f5260205f20905b81546001600160a01b03168152600190910190602001808311620004d2575b5050505050905090565b6200050562000555565b620005105f62000583565b565b6200051c62000555565b6001600160a01b0381166200054757604051631e4fbdf760e01b81525f600482015260240162000233565b620005528162000583565b50565b5f546001600160a01b03163314620005105760405163118cdaa760e01b815233600482015260240162000233565b5f80546001600160a01b038381166001600160a01b0319831681178455604051919092169283917f8be0079c531659141344cd1fd0a4f28419497f9722a3daafe3b4186f6b6457e09190a35050565b612020806200096e83390190565b634e487b7160e01b5f52604160045260245ffd5b604051601f8201601f1916810167ffffffffffffffff81118282101715620006205762000620620005e0565b604052919050565b5f82601f83011262000638575f80fd5b813567ffffffffffffffff811115620006555762000655620005e0565b6200066a601f8201601f1916602001620005f4565b8181528460208386010111156200067f575f80fd5b816020850160208301375f918101602001919091529392505050565b80356001600160a01b0381168114620006b2575f80fd5b919050565b5f805f8060808587031215620006cb575f80fd5b843567ffffffffffffffff80821115620006e3575f80fd5b620006f18883890162000628565b955060209150818701358181111562000708575f80fd5b6200071689828a0162000628565b9550506040870135818111156200072b575f80fd5b8701601f810189136200073c575f80fd5b803582811115620007515762000751620005e0565b8060051b62000762858201620005f4565b918252828101850191858101908c8411156200077c575f80fd5b938601935b83851015620007a55762000795856200069b565b8252938601939086019062000781565b9750505050606088013592505080821115620007bf575f80fd5b50620007ce8782880162000628565b91505092959194509250565b5f60208284031215620007eb575f80fd5b5035919050565b5f8151808452602080850194508084015f5b838110156200082b5781516001600160a01b03168752958201959082019060010162000804565b509495945050505050565b602081525f6200084a6020830184620007f2565b9392505050565b5f6020828403121562000862575f80fd5b6200084a826200069b565b5f600182016200088b57634e487b7160e01b5f52601160045260245ffd5b5060010190565b5f81518084525f5b81811015620008b8576020818501810151868301820152016200089a565b505f602082860101526020601f19601f83011685010191505092915050565b60c081525f620008eb60c083018962000892565b8281036020840152620008ff818962000892565b90508281036040840152620009158188620007f2565b905082810360608401526200092b818762000892565b6001600160a01b03959095166080840152505060a00152949350505050565b604081525f6200095e604083018562000892565b9050826020830152939250505056fe608060405234801562000010575f80fd5b50604051620020203803806200202083398101604081905262000033916200044a565b816001600160a01b0381166200006257604051631e4fbdf760e01b81525f600482015260240160405180910390fd5b6200006d8162000274565b5060016200007c8782620005a2565b5060026200008b8682620005a2565b5060036200009a8482620005a2565b50600580546001600160a01b0319166001600160a01b0384161790556004819055426006556040513090620000cf90620002c3565b6001600160a01b039091168152602001604051809103905ff080158015620000f9573d5f803e3d5ffd5b50600780546001600160a01b0319166001600160a01b03929092169190911790555f5b84518110156200026757600160085f8784815181106200014057620001406200066a565b60200260200101516001600160a01b03166001600160a01b031681526020019081526020015f205f6101000a81548160ff02191690831515021790555060098582815181106200019457620001946200066a565b60209081029190910181015182546001810184555f938452919092200180546001600160a01b0319166001600160a01b03928316179055600754865191169063da41f68e90879084908110620001ee57620001ee6200066a565b60200260200101516040518263ffffffff1660e01b81526004016200022291906001600160a01b0391909116815260200190565b5f604051808303815f87803b1580156200023a575f80fd5b505af11580156200024d573d5f803e3d5ffd5b5050505080806200025e906200067e565b9150506200011c565b50505050505050620006a3565b5f80546001600160a01b038381166001600160a01b0319831681178455604051919092169283917f8be0079c531659141344cd1fd0a4f28419497f9722a3daafe3b4186f6b6457e09190a35050565b610916806200170a83390190565b634e487b7160e01b5f52604160045260245ffd5b604051601f8201601f191681016001600160401b0381118282101715620003105762000310620002d1565b604052919050565b5f82601f83011262000328575f80fd5b81516001600160401b03811115620003445762000344620002d1565b60206200035a601f8301601f19168201620002e5565b82815285828487010111156200036e575f80fd5b5f5b838110156200038d57858101830151828201840152820162000370565b505f928101909101919091529392505050565b80516001600160a01b0381168114620003b7575f80fd5b919050565b5f82601f830112620003cc575f80fd5b815160206001600160401b03821115620003ea57620003ea620002d1565b8160051b620003fb828201620002e5565b928352848101820192828101908785111562000415575f80fd5b83870192505b848310156200043f576200042f83620003a0565b825291830191908301906200041b565b979650505050505050565b5f805f805f8060c0878903121562000460575f80fd5b86516001600160401b038082111562000477575f80fd5b620004858a838b0162000318565b975060208901519150808211156200049b575f80fd5b620004a98a838b0162000318565b96506040890151915080821115620004bf575f80fd5b620004cd8a838b01620003bc565b95506060890151915080821115620004e3575f80fd5b50620004f289828a0162000318565b9350506200050360808801620003a0565b915060a087015190509295509295509295565b600181811c908216806200052b57607f821691505b6020821081036200054a57634e487b7160e01b5f52602260045260245ffd5b50919050565b601f8211156200059d575f81815260208120601f850160051c81016020861015620005785750805b601f850160051c820191505b81811015620005995782815560010162000584565b5050505b505050565b81516001600160401b03811115620005be57620005be620002d1565b620005d681620005cf845462000516565b8462000550565b602080601f8311600181146200060c575f8415620005f45750858301515b5f19600386901b1c1916600185901b17855562000599565b5f85815260208120601f198616915b828110156200063c578886015182559484019460019091019084016200061b565b50858210156200065a57878501515f19600388901b60f8161c191681555b5050505050600190811b01905550565b634e487b7160e01b5f52603260045260245ffd5b5f600182016200069c57634e487b7160e01b5f52601160045260245ffd5b5060010190565b61105980620006b15f395ff3fe608060405260043610610133575f3560e01c80638da5cb5b116100a8578063cf09e0d01161006d578063cf09e0d01461033e578063e134f5f814610353578063f2fde38b14610372578063f7cbb1b214610391578063fc0f02f4146103cf578063fdc6258a146103f0575f80fd5b80638da5cb5b146102c657806392206b67146102e257806395d89b41146102f6578063c9442dac1461030a578063cac2699b14610329575f80fd5b8063715018a6116100f9578063715018a61461024e5780637284e4161461026257806373a82b5f146102765780637e916d1b1461029557806386b7a3891461029d57806386febbbf146102b2575f80fd5b8062435da51461018e57806302d05d3f146101ca57806306fdde03146101e95780630d86419a1461020a578063313dab201461022b575f80fd5b3661018a5734600b5f8282546101499190610e40565b90915550506040805134815242602082015233917fb68e8301ad7468a283824a6592dd711e09b95af56caa96757e636a4a8588bf29910160405180910390a2005b5f80fd5b348015610199575f80fd5b506007546101ad906001600160a01b031681565b6040516001600160a01b0390911681526020015b60405180910390f35b3480156101d5575f80fd5b506005546101ad906001600160a01b031681565b3480156101f4575f80fd5b506101fd610427565b6040516101c19190610e59565b348015610215575f80fd5b50610229610224366004610eb8565b6104b3565b005b348015610236575f80fd5b50610240600b5481565b6040519081526020016101c1565b348015610259575f80fd5b506102296106ea565b34801561026d575f80fd5b506101fd6106fd565b348015610281575f80fd5b50610229610290366004610ee2565b61070a565b6102296109bd565b3480156102a8575f80fd5b50610240600a5481565b3480156102bd575f80fd5b50600954610240565b3480156102d1575f80fd5b505f546001600160a01b03166101ad565b3480156102ed575f80fd5b50610229610a51565b348015610301575f80fd5b506101fd610acc565b348015610315575f80fd5b50610229610324366004610ee2565b610ad9565b348015610334575f80fd5b5061024060045481565b348015610349575f80fd5b5061024060065481565b34801561035e575f80fd5b506101ad61036d366004610f04565b610cec565b34801561037d575f80fd5b5061022961038c366004610ee2565b610d14565b34801561039c575f80fd5b506103bf6103ab366004610ee2565b60086020525f908152604090205460ff1681565b60405190151581526020016101c1565b3480156103da575f80fd5b506103e3610d51565b6040516101c19190610f1b565b3480156103fb575f80fd5b506103bf61040a366004610ee2565b6001600160a01b03165f9081526008602052604090205460ff1690565b6001805461043490610f67565b80601f016020809104026020016040519081016040528092919081815260200182805461046090610f67565b80156104ab5780601f10610482576101008083540402835291602001916104ab565b820191905f5260205f20905b81548152906001019060200180831161048e57829003601f168201915b505050505081565b5f546001600160a01b031633148061059e575060075460408051631d6c8e3f60e21b815290516001600160a01b03909216916391d148549183916375b238fc916004808201926020929091908290030181865afa158015610516573d5f803e3d5ffd5b505050506040513d601f19601f8201168201806040525081019061053a9190610f9f565b6040516001600160e01b031960e084901b1681526004810191909152336024820152604401602060405180830381865afa15801561057a573d5f803e3d5ffd5b505050506040513d601f19601f8201168201806040525081019061059e9190610fb6565b6105c35760405162461bcd60e51b81526004016105ba90610fd5565b60405180910390fd5b5f811180156105d45750600b548111155b6106115760405162461bcd60e51b815260206004820152600e60248201526d125b9d985b1a5908185b5bdd5b9d60921b60448201526064016105ba565b6001600160a01b0382166106595760405162461bcd60e51b815260206004820152600f60248201526e496e76616c6964206164647265737360881b60448201526064016105ba565b80600b5f82825461066a9190610ff8565b90915550506040516001600160a01b0383169082156108fc029083905f818181858888f193505050501580156106a2573d5f803e3d5ffd5b50604080518281524260208201526001600160a01b038416917f241d26202ece0e96f169c3ab6b0d540776434219c78f5727afa20c32cf367a29910160405180910390a25050565b6106f2610db1565b6106fb5f610ddd565b565b6003805461043490610f67565b5f546001600160a01b03163314806107f5575060075460408051631d6c8e3f60e21b815290516001600160a01b03909216916391d148549183916375b238fc916004808201926020929091908290030181865afa15801561076d573d5f803e3d5ffd5b505050506040513d601f19601f820116820180604052508101906107919190610f9f565b6040516001600160e01b031960e084901b1681526004810191909152336024820152604401602060405180830381865afa1580156107d1573d5f803e3d5ffd5b505050506040513d601f19601f820116820180604052508101906107f59190610fb6565b6108115760405162461bcd60e51b81526004016105ba90610fd5565b6001600160a01b0381165f9081526008602052604090205460ff16156108795760405162461bcd60e51b815260206004820152601760248201527f526576696577657220616c72656164792065786973747300000000000000000060448201526064016105ba565b6001600160a01b0381166108c15760405162461bcd60e51b815260206004820152600f60248201526e496e76616c6964206164647265737360881b60448201526064016105ba565b6001600160a01b038181165f81815260086020526040808220805460ff191660019081179091556009805491820181559092527f6e1540171b6c0c960b71a7020d9f60077f6af931a8bbf590da0223dacf75c7af90910180546001600160a01b031916831790556007549051636d20fb4760e11b815260048101929092529091169063da41f68e906024015f604051808303815f87803b158015610963575f80fd5b505af1158015610975573d5f803e3d5ffd5b50506040514281523392506001600160a01b03841691507f5e2af1c96b9d1f67ced0e46d8bc5f9673881189b5faa814e7235bee94e2b5aa3906020015b60405180910390a350565b5f34116109ff5760405162461bcd60e51b815260206004820152601060248201526f09aeae6e840c8cae0dee6d2e8408aa8960831b60448201526064016105ba565b34600b5f828254610a109190610e40565b90915550506040805134815242602082015233917fb68e8301ad7468a283824a6592dd711e09b95af56caa96757e636a4a8588bf29910160405180910390a2565b5f546001600160a01b03163314610ab65760405162461bcd60e51b8152602060048201526024808201527f4f6e6c79206f776e65722063616e20696e6372656d656e7420617564697420636044820152631bdd5b9d60e21b60648201526084016105ba565b600a8054905f610ac58361100b565b9190505550565b6002805461043490610f67565b5f546001600160a01b0316331480610bc4575060075460408051631d6c8e3f60e21b815290516001600160a01b03909216916391d148549183916375b238fc916004808201926020929091908290030181865afa158015610b3c573d5f803e3d5ffd5b505050506040513d601f19601f82011682018060405250810190610b609190610f9f565b6040516001600160e01b031960e084901b1681526004810191909152336024820152604401602060405180830381865afa158015610ba0573d5f803e3d5ffd5b505050506040513d601f19601f82011682018060405250810190610bc49190610fb6565b610be05760405162461bcd60e51b81526004016105ba90610fd5565b6001600160a01b0381165f9081526008602052604090205460ff16610c3c5760405162461bcd60e51b815260206004820152601260248201527114995d9a595dd95c881b9bdd08199bdd5b9960721b60448201526064016105ba565b6001600160a01b038181165f8181526008602052604090819020805460ff1916905560075490516308464ddf60e31b81526004810192909252909116906342326ef8906024015f604051808303815f87803b158015610c99575f80fd5b505af1158015610cab573d5f803e3d5ffd5b50506040514281523392506001600160a01b03841691507f3ff8ef1b16d58af76bf51c8585bc2f5f5c02153a5a8691fcf5c289b01317055d906020016109b2565b60098181548110610cfb575f80fd5b5f918252602090912001546001600160a01b0316905081565b610d1c610db1565b6001600160a01b038116610d4557604051631e4fbdf760e01b81525f60048201526024016105ba565b610d4e81610ddd565b50565b60606009805480602002602001604051908101604052809291908181526020018280548015610da757602002820191905f5260205f20905b81546001600160a01b03168152600190910190602001808311610d89575b5050505050905090565b5f546001600160a01b031633146106fb5760405163118cdaa760e01b81523360048201526024016105ba565b5f80546001600160a01b038381166001600160a01b0319831681178455604051919092169283917f8be0079c531659141344cd1fd0a4f28419497f9722a3daafe3b4186f6b6457e09190a35050565b634e487b7160e01b5f52601160045260245ffd5b80820180821115610e5357610e53610e2c565b92915050565b5f6020808352835180828501525f5b81811015610e8457858101830151858201604001528201610e68565b505f604082860101526040601f19601f8301168501019250505092915050565b6001600160a01b0381168114610d4e575f80fd5b5f8060408385031215610ec9575f80fd5b8235610ed481610ea4565b946020939093013593505050565b5f60208284031215610ef2575f80fd5b8135610efd81610ea4565b9392505050565b5f60208284031215610f14575f80fd5b5035919050565b602080825282518282018190525f9190848201906040850190845b81811015610f5b5783516001600160a01b031683529284019291840191600101610f36565b50909695505050505050565b600181811c90821680610f7b57607f821691505b602082108103610f9957634e487b7160e01b5f52602260045260245ffd5b50919050565b5f60208284031215610faf575f80fd5b5051919050565b5f60208284031215610fc6575f80fd5b81518015158114610efd575f80fd5b6020808252600990820152682737ba1030b236b4b760b91b604082015260600190565b81810381811115610e5357610e53610e2c565b5f6001820161101c5761101c610e2c565b506001019056fea2646970667358221220339ba77755a701194aa87d56817e9a67618dc6f6e7ca42baef995350ae6a556764736f6c63430008140033608060405234801561000f575f80fd5b5060405161091638038061091683398101604081905261002e91610113565b6100385f8261006a565b506100637fa49807205ce4d355092ef5a8a18f56e8913cf4a201fbe287825b095693c217758261006a565b5050610140565b5f828152602081815260408083206001600160a01b038516845290915281205460ff1661010a575f838152602081815260408083206001600160a01b03861684529091529020805460ff191660011790556100c23390565b6001600160a01b0316826001600160a01b0316847f2f8788117e7eff1d82e926ec794901d17c78024a50270940304540a733656f0d60405160405180910390a450600161010d565b505f5b92915050565b5f60208284031215610123575f80fd5b81516001600160a01b0381168114610139575f80fd5b9392505050565b6107c98061014d5f395ff3fe608060405234801561000f575f80fd5b50600436106100fb575f3560e01c806375b238fc11610093578063b1e44d8f11610063578063b1e44d8f1461020e578063d547741f14610221578063da41f68e14610234578063fdc6258a14610247575f80fd5b806375b238fc146101cd5780637927752e146101e157806391d14854146101f4578063a217fddf14610207575f80fd5b80632f2ff15d116100ce5780632f2ff15d1461018057806336568abe146101935780633b129a56146101a657806342326ef8146101ba575f80fd5b806301ffc9a7146100ff578063248a9ca314610127578063271f081b1461015757806327543a9a1461016c575b5f80fd5b61011261010d366004610690565b61025a565b60405190151581526020015b60405180910390f35b6101496101353660046106be565b5f9081526020819052604090206001015490565b60405190815260200161011e565b61016a6101653660046106f0565b610290565b005b6101495f8051602061073483398151915281565b61016a61018e366004610709565b610307565b61016a6101a1366004610709565b610331565b6101495f8051602061075483398151915281565b61016a6101c83660046106f0565b610369565b6101495f8051602061077483398151915281565b61016a6101ef3660046106f0565b6103e0565b610112610202366004610709565b610457565b6101495f81565b61011261021c3660046106f0565b61047f565b61016a61022f366004610709565b610497565b61016a6102423660046106f0565b6104bb565b6101126102553660046106f0565b610532565b5f6001600160e01b03198216637965db0b60e01b148061028a57506301ffc9a760e01b6001600160e01b03198316145b92915050565b5f805160206107748339815191526102a78161054a565b6102be5f8051602061073483398151915283610557565b5060405133906001600160a01b038416905f80516020610734833981519152907ff6391f5c32d9c69d2a47ea670b442974b53935d1edc7fd64eb21e047a839171b905f90a45050565b5f828152602081905260409020600101546103218161054a565b61032b83836105c7565b50505050565b6001600160a01b038116331461035a5760405163334bd91960e11b815260040160405180910390fd5b6103648282610557565b505050565b5f805160206107748339815191526103808161054a565b6103975f8051602061075483398151915283610557565b5060405133906001600160a01b038416905f80516020610754833981519152907ff6391f5c32d9c69d2a47ea670b442974b53935d1edc7fd64eb21e047a839171b905f90a45050565b5f805160206107748339815191526103f78161054a565b61040e5f80516020610734833981519152836105c7565b5060405133906001600160a01b038416905f80516020610734833981519152907f2f8788117e7eff1d82e926ec794901d17c78024a50270940304540a733656f0d905f90a45050565b5f918252602082815260408084206001600160a01b0393909316845291905290205460ff1690565b5f61028a5f8051602061073483398151915283610457565b5f828152602081905260409020600101546104b18161054a565b61032b8383610557565b5f805160206107748339815191526104d28161054a565b6104e95f80516020610754833981519152836105c7565b5060405133906001600160a01b038416905f80516020610754833981519152907f2f8788117e7eff1d82e926ec794901d17c78024a50270940304540a733656f0d905f90a45050565b5f61028a5f8051602061075483398151915283610457565b610554813361064f565b50565b5f6105628383610457565b156105c0575f838152602081815260408083206001600160a01b0386168085529252808320805460ff1916905551339286917ff6391f5c32d9c69d2a47ea670b442974b53935d1edc7fd64eb21e047a839171b9190a450600161028a565b505f61028a565b5f6105d28383610457565b6105c0575f838152602081815260408083206001600160a01b03861684529091529020805460ff191660011790556106073390565b6001600160a01b0316826001600160a01b0316847f2f8788117e7eff1d82e926ec794901d17c78024a50270940304540a733656f0d60405160405180910390a450600161028a565b6106598282610457565b61068c5760405163e2517d3f60e01b81526001600160a01b03821660048201526024810183905260440160405180910390fd5b5050565b5f602082840312156106a0575f80fd5b81356001600160e01b0319811681146106b7575f80fd5b9392505050565b5f602082840312156106ce575f80fd5b5035919050565b80356001600160a01b03811681146106eb575f80fd5b919050565b5f60208284031215610700575f80fd5b6106b7826106d5565b5f806040838503121561071a575f80fd5b8235915061072a602084016106d5565b9050925092905056fef29a78c020ddf311f61483cfe182d6d833b80b74c6044ef77e24d033c4266a4cc10c77be35aff266144ed64c26a1fa104bae2f284ae99ac4a34203454704a185a49807205ce4d355092ef5a8a18f56e8913cf4a201fbe287825b095693c21775a2646970667358221220e93ec2c09dfbeafe48307c46f4f5abc950edae019890f26c26c58af751d2d36264736f6c63430008140033a2646970667358221220033536caf6928cb96feb92e8c1a8d8a2762b72916ae678b284222941ff411e0b64736f6c63430008140033","linkReferences":{}},"methodIdentifiers":{"createDAO(string,string,address[],string)":"1abf42db","daoCount()":"d01cf419","daoIdToAddress(uint256)":"78ca0b48","daoList(uint256)":"37dd27f8","getAllDAOs()":"3cb2c68a","getDAOAddress(uint256)":"25c4e853","getDAOCount()":"3a479fb8","isDAO(address)":"50435fa4","owner()":"8da5cb5b","renounceOwnership()":"715018a6","transferOwnership(address)":"f2fde38b"},"id":26}