{"abi":[{"type":"constructor","inputs":[],"stateMutability":"nonpayable"},{"type":"function","name":"createDAO","inputs":[{"name":"_name","type":"string","internalType":"string"},{"name":"_symbol","type":"string","internalType":"string"},{"name":"_initialReviewers","type":"address[]","internalType":"address[]"},{"name":"_description","type":"string","internalType":"string"}],"outputs":[{"name":"","type":"address","internalType":"address"}],"stateMutability":"nonpayable"},{"type":"function","name":"daoCount","inputs":[],"outputs":[{"name":"","type":"uint256","internalType":"uint256"}],"stateMutability":"view"},{"type":"function","name":"daoIdToAddress","inputs":[{"name":"","type":"uint256","internalType":"uint256"}],"outputs":[{"name":"","type":"address","internalType":"address"}],"stateMutability":"view"},{"type":"function","name":"daoList","inputs":[{"name":"","type":"uint256","internalType":"uint256"}],"outputs":[{"name":"","type":"address","internalType":"address"}],"stateMutability":"view"},{"type":"function","name":"daoToAuditEscrow","inputs":[{"name":"","type":"address","internalType":"address"}],"outputs":[{"name":"","type":"address","internalType":"address"}],"stateMutability":"view"},{"type":"function","name":"getAllDAOs","inputs":[],"outputs":[{"name":"","type":"address[]","internalType":"address[]"}],"stateMutability":"view"},{"type":"function","name":"getAuditEscrowAddress","inputs":[{"name":"_daoAddress","type":"address","internalType":"address"}],"outputs":[{"name":"","type":"address","internalType":"address"}],"stateMutability":"view"},{"type":"function","name":"getDAOAddress","inputs":[{"name":"_daoId","type":"uint256","internalType":"uint256"}],"outputs":[{"name":"","type":"address","internalType":"address"}],"stateMutability":"view"},{"type":"function","name":"getDAOCount","inputs":[],"outputs":[{"name":"","type":"uint256","internalType":"uint256"}],"stateMutability":"view"},{"type":"function","name":"getReviewers","inputs":[{"name":"_dao","type":"address","internalType":"address"}],"outputs":[{"name":"","type":"address[]","internalType":"address[]"}],"stateMutability":"view"},{"type":"function","name":"isDAO","inputs":[{"name":"","type":"address","internalType":"address"}],"outputs":[{"name":"","type":"bool","internalType":"bool"}],"stateMutability":"view"},{"type":"function","name":"isReviewer","inputs":[{"name":"_dao","type":"address","internalType":"address"},{"name":"_reviewer","type":"address","internalType":"address"}],"outputs":[{"name":"","type":"bool","internalType":"bool"}],"stateMutability":"view"},{"type":"function","name":"owner","inputs":[],"outputs":[{"name":"","type":"address","internalType":"address"}],"stateMutability":"view"},{"type":"function","name":"renounceOwnership","inputs":[],"outputs":[],"stateMutability":"nonpayable"},{"type":"function","name":"transferOwnership","inputs":[{"name":"newOwner","type":"address","internalType":"address"}],"outputs":[],"stateMutability":"nonpayable"},{"type":"event","name":"AuditEscrowDeployed","inputs":[{"name":"daoAddress","type":"address","indexed":true,"internalType":"address"},{"name":"auditEscrowAddress","type":"address","indexed":true,"internalType":"address"},{"name":"timestamp","type":"uint256","indexed":false,"internalType":"uint256"}],"anonymous":false},{"type":"event","name":"DAOCreated","inputs":[{"name":"daoId","type":"uint256","indexed":true,"internalType":"uint256"},{"name":"daoAddress","type":"address","indexed":true,"internalType":"address"},{"name":"name","type":"string","indexed":false,"internalType":"string"},{"name":"creator","type":"address","indexed":true,"internalType":"address"},{"name":"timestamp","type":"uint256","indexed":false,"internalType":"uint256"}],"anonymous":false},{"type":"event","name":"OwnershipTransferred","inputs":[{"name":"previousOwner","type":"address","indexed":true,"internalType":"address"},{"name":"newOwner","type":"address","indexed":true,"internalType":"address"}],"anonymous":false},{"type":"error","name":"OwnableInvalidOwner","inputs":[{"name":"owner","type":"address","internalType":"address"}]},{"type":"error","name":"OwnableUnauthorizedAccount","inputs":[{"name":"account","type":"address","internalType":"address"}]}],"bytecode":{"object":"0x608060405234801561000f575f80fd5b50338061003557604051631e4fbdf760e01b81525f600482015260240160405180910390fd5b61003e81610044565b50610093565b5f80546001600160a01b038381166001600160a01b0319831681178455604051919092169283917f8be0079c531659141344cd1fd0a4f28419497f9722a3daafe3b4186f6b6457e09190a35050565b6158d0806100a05f395ff3fe608060405234801562000010575f80fd5b506004361062000104575f3560e01c806378ca0b48116200009f5780639c1eb3c8116200006b5780639c1eb3c81462000256578063a2ccd275146200026d578063d01cf4191462000284578063f2fde38b146200028e575f80fd5b806378ca0b4814620001d8578063870dfaaf14620002035780638da5cb5b146200022e57806395f43496146200023f575f80fd5b80633a479fb811620000df5780633a479fb8146200016a5780633cb2c68a146200017d57806350435fa41462000196578063715018a614620001cc575f80fd5b80631abf42db146200010857806325c4e853146200013c57806337dd27f81462000153575b5f80fd5b6200011f62000119366004620009d5565b620002a5565b6040516001600160a01b0390911681526020015b60405180910390f35b6200011f6200014d36600462000aef565b6200058e565b6200011f6200016436600462000aef565b620005fb565b6001545b60405190815260200162000133565b6200018762000624565b60405162000133919062000b4b565b620001bb620001a736600462000b5f565b60056020525f908152604090205460ff1681565b604051901515815260200162000133565b620001d662000686565b005b6200011f620001e936600462000aef565b60036020525f90815260409020546001600160a01b031681565b6200011f6200021436600462000b5f565b60046020525f90815260409020546001600160a01b031681565b5f546001600160a01b03166200011f565b6200011f6200025036600462000b5f565b6200069d565b620001876200026736600462000b5f565b6200071a565b620001bb6200027e36600462000b7d565b6200078c565b6200016e60015481565b620001d66200029f36600462000b5f565b62000803565b5f80855111620002fc5760405162461bcd60e51b815260206004820152601860248201527f44414f206e616d652063616e6e6f7420626520656d707479000000000000000060448201526064015b60405180910390fd5b5f8451116200034e5760405162461bcd60e51b815260206004820152601a60248201527f44414f2073796d626f6c2063616e6e6f7420626520656d7074790000000000006044820152606401620002f3565b5f835111620003a05760405162461bcd60e51b815260206004820152601e60248201527f4174206c65617374206f6e6520726576696577657220726571756972656400006044820152606401620002f3565b60018054905f620003b18362000bb9565b91905055505f8585858533600154604051620003cd90620008c3565b620003de9695949392919062000c23565b604051809103905ff080158015620003f8573d5f803e3d5ffd5b50600180545f90815260036020908152604080832080546001600160a01b0387166001600160a01b03199182168117909255600280548088019091557f405787fa12a823e0f2b7631cc41b3ba8828b3321ca811111fa75cd3aa3bb5ace0180549091168217905583526005909152808220805460ff191690931790925590519192508291309083906200048b90620008d1565b6001600160a01b03928316815291166020820152604001604051809103905ff080158015620004bc573d5f803e3d5ffd5b506001600160a01b038381165f818152600460205260409081902080546001600160a01b03191693851693909317909255600154915192935083923392907f17d89f39c3c4452f84130324e49bc1c0028758c0ae1b78bdcb33a43aa0c43128906200052b908e90429062000c96565b60405180910390a4806001600160a01b0316836001600160a01b03167f60e83f0de13aadf9ebf95bb36223bb9cabb19f7aaa2463c383c20fb1e8340124426040516200057991815260200190565b60405180910390a35090979650505050505050565b5f8082118015620005a157506001548211155b620005e05760405162461bcd60e51b815260206004820152600e60248201526d125b9d985b1a5908111053c8125160921b6044820152606401620002f3565b505f908152600360205260409020546001600160a01b031690565b600281815481106200060b575f80fd5b5f918252602090912001546001600160a01b0316905081565b606060028054806020026020016040519081016040528092919081815260200182805480156200067c57602002820191905f5260205f20905b81546001600160a01b031681526001909101906020018083116200065d575b5050505050905090565b6200069062000846565b6200069b5f62000874565b565b6001600160a01b0381165f9081526005602052604081205460ff16620006fc5760405162461bcd60e51b8152602060048201526013602482015272496e76616c69642044414f206164647265737360681b6044820152606401620002f3565b506001600160a01b039081165f908152600460205260409020541690565b60605f829050806001600160a01b031663d5a427c36040518163ffffffff1660e01b81526004015f60405180830381865afa1580156200075c573d5f803e3d5ffd5b505050506040513d5f823e601f3d908101601f1916820160405262000785919081019062000cb9565b9392505050565b604051637be5d8d960e11b81526001600160a01b0382811660048301525f91849182169063f7cbb1b290602401602060405180830381865afa158015620007d5573d5f803e3d5ffd5b505050506040513d601f19601f82011682018060405250810190620007fb919062000d59565b949350505050565b6200080d62000846565b6001600160a01b0381166200083857604051631e4fbdf760e01b81525f6004820152602401620002f3565b620008438162000874565b50565b5f546001600160a01b031633146200069b5760405163118cdaa760e01b8152336004820152602401620002f3565b5f80546001600160a01b038381166001600160a01b0319831681178455604051919092169283917f8be0079c531659141344cd1fd0a4f28419497f9722a3daafe3b4186f6b6457e09190a35050565b6120208062000d7b83390190565b612b008062002d9b83390190565b634e487b7160e01b5f52604160045260245ffd5b604051601f8201601f1916810167ffffffffffffffff811182821017156200091f576200091f620008df565b604052919050565b5f82601f83011262000937575f80fd5b813567ffffffffffffffff811115620009545762000954620008df565b62000969601f8201601f1916602001620008f3565b8181528460208386010111156200097e575f80fd5b816020850160208301375f918101602001919091529392505050565b5f67ffffffffffffffff821115620009b657620009b6620008df565b5060051b60200190565b6001600160a01b038116811462000843575f80fd5b5f805f8060808587031215620009e9575f80fd5b843567ffffffffffffffff8082111562000a01575f80fd5b62000a0f8883890162000927565b955060209150818701358181111562000a26575f80fd5b62000a3489828a0162000927565b95505060408701358181111562000a49575f80fd5b8701601f8101891362000a5a575f80fd5b803562000a7162000a6b826200099a565b620008f3565b81815260059190911b8201840190848101908b83111562000a90575f80fd5b928501925b8284101562000abb57833562000aab81620009c0565b8252928501929085019062000a95565b9650505050606087013591508082111562000ad4575f80fd5b5062000ae38782880162000927565b91505092959194509250565b5f6020828403121562000b00575f80fd5b5035919050565b5f8151808452602080850194508084015f5b8381101562000b405781516001600160a01b03168752958201959082019060010162000b19565b509495945050505050565b602081525f62000785602083018462000b07565b5f6020828403121562000b70575f80fd5b81356200078581620009c0565b5f806040838503121562000b8f575f80fd5b823562000b9c81620009c0565b9150602083013562000bae81620009c0565b809150509250929050565b5f6001820162000bd757634e487b7160e01b5f52601160045260245ffd5b5060010190565b5f81518084525f5b8181101562000c045760208185018101518683018201520162000be6565b505f602082860101526020601f19601f83011685010191505092915050565b60c081525f62000c3760c083018962000bde565b828103602084015262000c4b818962000bde565b9050828103604084015262000c61818862000b07565b9050828103606084015262000c77818762000bde565b6001600160a01b03959095166080840152505060a00152949350505050565b604081525f62000caa604083018562000bde565b90508260208301529392505050565b5f602080838503121562000ccb575f80fd5b825167ffffffffffffffff81111562000ce2575f80fd5b8301601f8101851362000cf3575f80fd5b805162000d0462000a6b826200099a565b81815260059190911b8201830190838101908783111562000d23575f80fd5b928401925b8284101562000d4e57835162000d3e81620009c0565b8252928401929084019062000d28565b979650505050505050565b5f6020828403121562000d6a575f80fd5b8151801515811462000785575f80fdfe608060405234801562000010575f80fd5b50604051620020203803806200202083398101604081905262000033916200044a565b816001600160a01b0381166200006257604051631e4fbdf760e01b81525f600482015260240160405180910390fd5b6200006d8162000274565b5060016200007c8782620005a2565b5060026200008b8682620005a2565b5060036200009a8482620005a2565b50600580546001600160a01b0319166001600160a01b0384161790556004819055426006556040513090620000cf90620002c3565b6001600160a01b039091168152602001604051809103905ff080158015620000f9573d5f803e3d5ffd5b50600780546001600160a01b0319166001600160a01b03929092169190911790555f5b84518110156200026757600160085f8784815181106200014057620001406200066a565b60200260200101516001600160a01b03166001600160a01b031681526020019081526020015f205f6101000a81548160ff02191690831515021790555060098582815181106200019457620001946200066a565b60209081029190910181015182546001810184555f938452919092200180546001600160a01b0319166001600160a01b03928316179055600754865191169063da41f68e90879084908110620001ee57620001ee6200066a565b60200260200101516040518263ffffffff1660e01b81526004016200022291906001600160a01b0391909116815260200190565b5f604051808303815f87803b1580156200023a575f80fd5b505af11580156200024d573d5f803e3d5ffd5b5050505080806200025e906200067e565b9150506200011c565b50505050505050620006a3565b5f80546001600160a01b038381166001600160a01b0319831681178455604051919092169283917f8be0079c531659141344cd1fd0a4f28419497f9722a3daafe3b4186f6b6457e09190a35050565b610916806200170a83390190565b634e487b7160e01b5f52604160045260245ffd5b604051601f8201601f191681016001600160401b0381118282101715620003105762000310620002d1565b604052919050565b5f82601f83011262000328575f80fd5b81516001600160401b03811115620003445762000344620002d1565b60206200035a601f8301601f19168201620002e5565b82815285828487010111156200036e575f80fd5b5f5b838110156200038d57858101830151828201840152820162000370565b505f928101909101919091529392505050565b80516001600160a01b0381168114620003b7575f80fd5b919050565b5f82601f830112620003cc575f80fd5b815160206001600160401b03821115620003ea57620003ea620002d1565b8160051b620003fb828201620002e5565b928352848101820192828101908785111562000415575f80fd5b83870192505b848310156200043f576200042f83620003a0565b825291830191908301906200041b565b979650505050505050565b5f805f805f8060c0878903121562000460575f80fd5b86516001600160401b038082111562000477575f80fd5b620004858a838b0162000318565b975060208901519150808211156200049b575f80fd5b620004a98a838b0162000318565b96506040890151915080821115620004bf575f80fd5b620004cd8a838b01620003bc565b95506060890151915080821115620004e3575f80fd5b50620004f289828a0162000318565b9350506200050360808801620003a0565b915060a087015190509295509295509295565b600181811c908216806200052b57607f821691505b6020821081036200054a57634e487b7160e01b5f52602260045260245ffd5b50919050565b601f8211156200059d575f81815260208120601f850160051c81016020861015620005785750805b601f850160051c820191505b81811015620005995782815560010162000584565b5050505b505050565b81516001600160401b03811115620005be57620005be620002d1565b620005d681620005cf845462000516565b8462000550565b602080601f8311600181146200060c575f8415620005f45750858301515b5f19600386901b1c1916600185901b17855562000599565b5f85815260208120601f198616915b828110156200063c578886015182559484019460019091019084016200061b565b50858210156200065a57878501515f19600388901b60f8161c191681555b5050505050600190811b01905550565b634e487b7160e01b5f52603260045260245ffd5b5f600182016200069c57634e487b7160e01b5f52601160045260245ffd5b5060010190565b61105980620006b15f395ff3fe608060405260043610610133575f3560e01c80638da5cb5b116100a8578063cf09e0d01161006d578063cf09e0d01461033e578063e134f5f814610353578063f2fde38b14610372578063f7cbb1b214610391578063fc0f02f4146103cf578063fdc6258a146103f0575f80fd5b80638da5cb5b146102c657806392206b67146102e257806395d89b41146102f6578063c9442dac1461030a578063cac2699b14610329575f80fd5b8063715018a6116100f9578063715018a61461024e5780637284e4161461026257806373a82b5f146102765780637e916d1b1461029557806386b7a3891461029d57806386febbbf146102b2575f80fd5b8062435da51461018e57806302d05d3f146101ca57806306fdde03146101e95780630d86419a1461020a578063313dab201461022b575f80fd5b3661018a5734600b5f8282546101499190610e40565b90915550506040805134815242602082015233917fb68e8301ad7468a283824a6592dd711e09b95af56caa96757e636a4a8588bf29910160405180910390a2005b5f80fd5b348015610199575f80fd5b506007546101ad906001600160a01b031681565b6040516001600160a01b0390911681526020015b60405180910390f35b3480156101d5575f80fd5b506005546101ad906001600160a01b031681565b3480156101f4575f80fd5b506101fd610427565b6040516101c19190610e59565b348015610215575f80fd5b50610229610224366004610eb8565b6104b3565b005b348015610236575f80fd5b50610240600b5481565b6040519081526020016101c1565b348015610259575f80fd5b506102296106ea565b34801561026d575f80fd5b506101fd6106fd565b348015610281575f80fd5b50610229610290366004610ee2565b61070a565b6102296109bd565b3480156102a8575f80fd5b50610240600a5481565b3480156102bd575f80fd5b50600954610240565b3480156102d1575f80fd5b505f546001600160a01b03166101ad565b3480156102ed575f80fd5b50610229610a51565b348015610301575f80fd5b506101fd610acc565b348015610315575f80fd5b50610229610324366004610ee2565b610ad9565b348015610334575f80fd5b5061024060045481565b348015610349575f80fd5b5061024060065481565b34801561035e575f80fd5b506101ad61036d366004610f04565b610cec565b34801561037d575f80fd5b5061022961038c366004610ee2565b610d14565b34801561039c575f80fd5b506103bf6103ab366004610ee2565b60086020525f908152604090205460ff1681565b60405190151581526020016101c1565b3480156103da575f80fd5b506103e3610d51565b6040516101c19190610f1b565b3480156103fb575f80fd5b506103bf61040a366004610ee2565b6001600160a01b03165f9081526008602052604090205460ff1690565b6001805461043490610f67565b80601f016020809104026020016040519081016040528092919081815260200182805461046090610f67565b80156104ab5780601f10610482576101008083540402835291602001916104ab565b820191905f5260205f20905b81548152906001019060200180831161048e57829003601f168201915b505050505081565b5f546001600160a01b031633148061059e575060075460408051631d6c8e3f60e21b815290516001600160a01b03909216916391d148549183916375b238fc916004808201926020929091908290030181865afa158015610516573d5f803e3d5ffd5b505050506040513d601f19601f8201168201806040525081019061053a9190610f9f565b6040516001600160e01b031960e084901b1681526004810191909152336024820152604401602060405180830381865afa15801561057a573d5f803e3d5ffd5b505050506040513d601f19601f8201168201806040525081019061059e9190610fb6565b6105c35760405162461bcd60e51b81526004016105ba90610fd5565b60405180910390fd5b5f811180156105d45750600b548111155b6106115760405162461bcd60e51b815260206004820152600e60248201526d125b9d985b1a5908185b5bdd5b9d60921b60448201526064016105ba565b6001600160a01b0382166106595760405162461bcd60e51b815260206004820152600f60248201526e496e76616c6964206164647265737360881b60448201526064016105ba565b80600b5f82825461066a9190610ff8565b90915550506040516001600160a01b0383169082156108fc029083905f818181858888f193505050501580156106a2573d5f803e3d5ffd5b50604080518281524260208201526001600160a01b038416917f241d26202ece0e96f169c3ab6b0d540776434219c78f5727afa20c32cf367a29910160405180910390a25050565b6106f2610db1565b6106fb5f610ddd565b565b6003805461043490610f67565b5f546001600160a01b03163314806107f5575060075460408051631d6c8e3f60e21b815290516001600160a01b03909216916391d148549183916375b238fc916004808201926020929091908290030181865afa15801561076d573d5f803e3d5ffd5b505050506040513d601f19601f820116820180604052508101906107919190610f9f565b6040516001600160e01b031960e084901b1681526004810191909152336024820152604401602060405180830381865afa1580156107d1573d5f803e3d5ffd5b505050506040513d601f19601f820116820180604052508101906107f59190610fb6565b6108115760405162461bcd60e51b81526004016105ba90610fd5565b6001600160a01b0381165f9081526008602052604090205460ff16156108795760405162461bcd60e51b815260206004820152601760248201527f526576696577657220616c72656164792065786973747300000000000000000060448201526064016105ba565b6001600160a01b0381166108c15760405162461bcd60e51b815260206004820152600f60248201526e496e76616c6964206164647265737360881b60448201526064016105ba565b6001600160a01b038181165f81815260086020526040808220805460ff191660019081179091556009805491820181559092527f6e1540171b6c0c960b71a7020d9f60077f6af931a8bbf590da0223dacf75c7af90910180546001600160a01b031916831790556007549051636d20fb4760e11b815260048101929092529091169063da41f68e906024015f604051808303815f87803b158015610963575f80fd5b505af1158015610975573d5f803e3d5ffd5b50506040514281523392506001600160a01b03841691507f5e2af1c96b9d1f67ced0e46d8bc5f9673881189b5faa814e7235bee94e2b5aa3906020015b60405180910390a350565b5f34116109ff5760405162461bcd60e51b815260206004820152601060248201526f09aeae6e840c8cae0dee6d2e8408aa8960831b60448201526064016105ba565b34600b5f828254610a109190610e40565b90915550506040805134815242602082015233917fb68e8301ad7468a283824a6592dd711e09b95af56caa96757e636a4a8588bf29910160405180910390a2565b5f546001600160a01b03163314610ab65760405162461bcd60e51b8152602060048201526024808201527f4f6e6c79206f776e65722063616e20696e6372656d656e7420617564697420636044820152631bdd5b9d60e21b60648201526084016105ba565b600a8054905f610ac58361100b565b9190505550565b6002805461043490610f67565b5f546001600160a01b0316331480610bc4575060075460408051631d6c8e3f60e21b815290516001600160a01b03909216916391d148549183916375b238fc916004808201926020929091908290030181865afa158015610b3c573d5f803e3d5ffd5b505050506040513d601f19601f82011682018060405250810190610b609190610f9f565b6040516001600160e01b031960e084901b1681526004810191909152336024820152604401602060405180830381865afa158015610ba0573d5f803e3d5ffd5b505050506040513d601f19601f82011682018060405250810190610bc49190610fb6565b610be05760405162461bcd60e51b81526004016105ba90610fd5565b6001600160a01b0381165f9081526008602052604090205460ff16610c3c5760405162461bcd60e51b815260206004820152601260248201527114995d9a595dd95c881b9bdd08199bdd5b9960721b60448201526064016105ba565b6001600160a01b038181165f8181526008602052604090819020805460ff1916905560075490516308464ddf60e31b81526004810192909252909116906342326ef8906024015f604051808303815f87803b158015610c99575f80fd5b505af1158015610cab573d5f803e3d5ffd5b50506040514281523392506001600160a01b03841691507f3ff8ef1b16d58af76bf51c8585bc2f5f5c02153a5a8691fcf5c289b01317055d906020016109b2565b60098181548110610cfb575f80fd5b5f918252602090912001546001600160a01b0316905081565b610d1c610db1565b6001600160a01b038116610d4557604051631e4fbdf760e01b81525f60048201526024016105ba565b610d4e81610ddd565b50565b60606009805480602002602001604051908101604052809291908181526020018280548015610da757602002820191905f5260205f20905b81546001600160a01b03168152600190910190602001808311610d89575b5050505050905090565b5f546001600160a01b031633146106fb5760405163118cdaa760e01b81523360048201526024016105ba565b5f80546001600160a01b038381166001600160a01b0319831681178455604051919092169283917f8be0079c531659141344cd1fd0a4f28419497f9722a3daafe3b4186f6b6457e09190a35050565b634e487b7160e01b5f52601160045260245ffd5b80820180821115610e5357610e53610e2c565b92915050565b5f6020808352835180828501525f5b81811015610e8457858101830151858201604001528201610e68565b505f604082860101526040601f19601f8301168501019250505092915050565b6001600160a01b0381168114610d4e575f80fd5b5f8060408385031215610ec9575f80fd5b8235610ed481610ea4565b946020939093013593505050565b5f60208284031215610ef2575f80fd5b8135610efd81610ea4565b9392505050565b5f60208284031215610f14575f80fd5b5035919050565b602080825282518282018190525f9190848201906040850190845b81811015610f5b5783516001600160a01b031683529284019291840191600101610f36565b50909695505050505050565b600181811c90821680610f7b57607f821691505b602082108103610f9957634e487b7160e01b5f52602260045260245ffd5b50919050565b5f60208284031215610faf575f80fd5b5051919050565b5f60208284031215610fc6575f80fd5b81518015158114610efd575f80fd5b6020808252600990820152682737ba1030b236b4b760b91b604082015260600190565b81810381811115610e5357610e53610e2c565b5f6001820161101c5761101c610e2c565b506001019056fea2646970667358221220339ba77755a701194aa87d56817e9a67618dc6f6e7ca42baef995350ae6a556764736f6c63430008140033608060405234801561000f575f80fd5b5060405161091638038061091683398101604081905261002e91610113565b6100385f8261006a565b506100637fa49807205ce4d355092ef5a8a18f56e8913cf4a201fbe287825b095693c217758261006a565b5050610140565b5f828152602081815260408083206001600160a01b038516845290915281205460ff1661010a575f838152602081815260408083206001600160a01b03861684529091529020805460ff191660011790556100c23390565b6001600160a01b0316826001600160a01b0316847f2f8788117e7eff1d82e926ec794901d17c78024a50270940304540a733656f0d60405160405180910390a450600161010d565b505f5b92915050565b5f60208284031215610123575f80fd5b81516001600160a01b0381168114610139575f80fd5b9392505050565b6107c98061014d5f395ff3fe608060405234801561000f575f80fd5b50600436106100fb575f3560e01c806375b238fc11610093578063b1e44d8f11610063578063b1e44d8f1461020e578063d547741f14610221578063da41f68e14610234578063fdc6258a14610247575f80fd5b806375b238fc146101cd5780637927752e146101e157806391d14854146101f4578063a217fddf14610207575f80fd5b80632f2ff15d116100ce5780632f2ff15d1461018057806336568abe146101935780633b129a56146101a657806342326ef8146101ba575f80fd5b806301ffc9a7146100ff578063248a9ca314610127578063271f081b1461015757806327543a9a1461016c575b5f80fd5b61011261010d366004610690565b61025a565b60405190151581526020015b60405180910390f35b6101496101353660046106be565b5f9081526020819052604090206001015490565b60405190815260200161011e565b61016a6101653660046106f0565b610290565b005b6101495f8051602061073483398151915281565b61016a61018e366004610709565b610307565b61016a6101a1366004610709565b610331565b6101495f8051602061075483398151915281565b61016a6101c83660046106f0565b610369565b6101495f8051602061077483398151915281565b61016a6101ef3660046106f0565b6103e0565b610112610202366004610709565b610457565b6101495f81565b61011261021c3660046106f0565b61047f565b61016a61022f366004610709565b610497565b61016a6102423660046106f0565b6104bb565b6101126102553660046106f0565b610532565b5f6001600160e01b03198216637965db0b60e01b148061028a57506301ffc9a760e01b6001600160e01b03198316145b92915050565b5f805160206107748339815191526102a78161054a565b6102be5f8051602061073483398151915283610557565b5060405133906001600160a01b038416905f80516020610734833981519152907ff6391f5c32d9c69d2a47ea670b442974b53935d1edc7fd64eb21e047a839171b905f90a45050565b5f828152602081905260409020600101546103218161054a565b61032b83836105c7565b50505050565b6001600160a01b038116331461035a5760405163334bd91960e11b815260040160405180910390fd5b6103648282610557565b505050565b5f805160206107748339815191526103808161054a565b6103975f8051602061075483398151915283610557565b5060405133906001600160a01b038416905f80516020610754833981519152907ff6391f5c32d9c69d2a47ea670b442974b53935d1edc7fd64eb21e047a839171b905f90a45050565b5f805160206107748339815191526103f78161054a565b61040e5f80516020610734833981519152836105c7565b5060405133906001600160a01b038416905f80516020610734833981519152907f2f8788117e7eff1d82e926ec794901d17c78024a50270940304540a733656f0d905f90a45050565b5f918252602082815260408084206001600160a01b0393909316845291905290205460ff1690565b5f61028a5f8051602061073483398151915283610457565b5f828152602081905260409020600101546104b18161054a565b61032b8383610557565b5f805160206107748339815191526104d28161054a565b6104e95f80516020610754833981519152836105c7565b5060405133906001600160a01b038416905f80516020610754833981519152907f2f8788117e7eff1d82e926ec794901d17c78024a50270940304540a733656f0d905f90a45050565b5f61028a5f8051602061075483398151915283610457565b610554813361064f565b50565b5f6105628383610457565b156105c0575f838152602081815260408083206001600160a01b0386168085529252808320805460ff1916905551339286917ff6391f5c32d9c69d2a47ea670b442974b53935d1edc7fd64eb21e047a839171b9190a450600161028a565b505f61028a565b5f6105d28383610457565b6105c0575f838152602081815260408083206001600160a01b03861684529091529020805460ff191660011790556106073390565b6001600160a01b0316826001600160a01b0316847f2f8788117e7eff1d82e926ec794901d17c78024a50270940304540a733656f0d60405160405180910390a450600161028a565b6106598282610457565b61068c5760405163e2517d3f60e01b81526001600160a01b03821660048201526024810183905260440160405180910390fd5b5050565b5f602082840312156106a0575f80fd5b81356001600160e01b0319811681146106b7575f80fd5b9392505050565b5f602082840312156106ce575f80fd5b5035919050565b80356001600160a01b03811681146106eb575f80fd5b919050565b5f60208284031215610700575f80fd5b6106b7826106d5565b5f806040838503121561071a575f80fd5b8235915061072a602084016106d5565b9050925092905056fef29a78c020ddf311f61483cfe182d6d833b80b74c6044ef77e24d033c4266a4cc10c77be35aff266144ed64c26a1fa104bae2f284ae99ac4a34203454704a185a49807205ce4d355092ef5a8a18f56e8913cf4a201fbe287825b095693c21775a2646970667358221220e93ec2c09dfbeafe48307c46f4f5abc950edae019890f26c26c58af751d2d36264736f6c63430008140033608060405234801562000010575f80fd5b5060405162002b0038038062002b00833981016040819052620000339162000126565b33806200005957604051631e4fbdf760e01b81525f600482015260240160405180910390fd5b6200006481620000bb565b5060017f9b779b17422d0df92223018b32b4d1fa46e071723d6817e2486d003becc55f0055600180546001600160a01b039384166001600160a01b031991821617909155600280549290931691161790556200015c565b5f80546001600160a01b038381166001600160a01b0319831681178455604051919092169283917f8be0079c531659141344cd1fd0a4f28419497f9722a3daafe3b4186f6b6457e09190a35050565b80516001600160a01b038116811462000121575f80fd5b919050565b5f806040838503121562000138575f80fd5b62000143836200010a565b915062000153602084016200010a565b90509250929050565b612996806200016a5f395ff3fe6080604052600436106101ba575f3560e01c8063739d92fb116100f2578063b87fa3d411610092578063ec486cf311610062578063ec486cf314610567578063ee439c9814610586578063f2fde38b1461059b578063fc624a43146105ba575f80fd5b8063b87fa3d41461047b578063c2b0ee7a14610520578063c421c79e1461053f578063dd96608914610553575f80fd5b806399e759d1116100cd57806399e759d1146103f4578063a6cfa1c21461041f578063abf09b3114610433578063b60e73db14610447575f80fd5b8063739d92fb146103965780638da5cb5b146103c457806399a677d1146103e0575f80fd5b80633e88adb41161015d57806363fc473c1161013857806363fc473c1461033157806367daec2c1461035057806370330e4b14610363578063715018a614610382575f80fd5b80633e88adb4146102bc5780634162169f146102db57806348f7f2a314610312575f80fd5b80632b7bb517116101985780632b7bb5171461021d5780632fc5d0d11461023c5780633a54e1001461026e5780633e3f1b981461028d575f80fd5b8063110fea20146101be57806317612670146101df57806323c8bbda146101fe575b5f80fd5b3480156101c9575f80fd5b506101dd6101d8366004612408565b6105d9565b005b3480156101ea575f80fd5b506101dd6101f9366004612435565b610763565b348015610209575f80fd5b506101dd610218366004612408565b6109ea565b348015610228575f80fd5b506101dd610237366004612408565b610d02565b348015610247575f80fd5b5061025b61025636600461245f565b611078565b6040519081526020015b60405180910390f35b348015610279575f80fd5b506101dd610288366004612408565b6110a3565b348015610298575f80fd5b506102ac6102a7366004612408565b611258565b6040519015158152602001610265565b3480156102c7575f80fd5b5061025b6102d636600461245f565b61155e565b3480156102e6575f80fd5b506002546102fa906001600160a01b031681565b6040516001600160a01b039091168152602001610265565b34801561031d575f80fd5b506001546102fa906001600160a01b031681565b34801561033c575f80fd5b506102ac61034b366004612487565b611577565b61025b61035e36600461253d565b6115c5565b34801561036e575f80fd5b506101dd61037d366004612408565b61188e565b34801561038d575f80fd5b506101dd611955565b3480156103a1575f80fd5b5061025b6103b0366004612487565b60086020525f908152604090206001015481565b3480156103cf575f80fd5b505f546001600160a01b03166102fa565b3480156103eb575f80fd5b5061025b600381565b3480156103ff575f80fd5b5061025b61040e366004612487565b60076020525f908152604090205481565b34801561042a575f80fd5b5061025b605081565b34801561043e575f80fd5b506101dd611968565b348015610452575f80fd5b50610466610461366004612408565b611aef565b604051610265999897969594939291906125ce565b348015610486575f80fd5b506104df610495366004612487565b600660208190525f918252604090912080546001820154600283015460038401546004850154600586015495909601546001600160a01b03909416959294919390929160ff169087565b604080516001600160a01b03909816885260208801969096529486019390935260608501919091526080840152151560a083015260c082015260e001610265565b34801561052b575f80fd5b506101dd61053a366004612408565b611be7565b34801561054a575f80fd5b5061025b601481565b34801561055e575f80fd5b506101dd611c93565b348015610572575f80fd5b506101dd610581366004612650565b611ddb565b348015610591575f80fd5b5061025b610e1081565b3480156105a6575f80fd5b506101dd6105b5366004612487565b611f5d565b3480156105c5575f80fd5b506101dd6105d4366004612408565b611fc7565b60035481106106035760405162461bcd60e51b81526004016105fa90612694565b60405180910390fd5b5f60038281548110610617576106176126cb565b5f91825260209091206008909102019050600160048083015460ff1690811115610643576106436125ba565b146106865760405162461bcd60e51b81526020600482015260136024820152724175646974206e6f7420696e2072657669657760681b60448201526064016105fa565b60018101546001600160a01b031633146106ee5760405162461bcd60e51b815260206004820152602360248201527f4f6e6c792061737369676e65642072657669657765722063616e20636f6d706c60448201526265746560e81b60648201526084016105fa565b60048101805460ff1916600217905542600682015561070e3360016120cf565b6001810154600254604080518581524260208201526001600160a01b0393841693909216917f8a710282c30b4a3be576da2130b62c88589cacc39458ad68b43e43a3728a2bcc91015b60405180910390a35050565b60035482106107845760405162461bcd60e51b81526004016105fa90612694565b5f60038381548110610798576107986126cb565b5f91825260208220600890910201915060048083015460ff16908111156107c1576107c16125ba565b146108025760405162461bcd60e51b81526020600482015260116024820152704175646974206e6f742070656e64696e6760781b60448201526064016105fa565b6002546001600160a01b0316331461085c5760405162461bcd60e51b815260206004820152601c60248201527f4f6e6c792044414f2063616e2061737369676e2072657669657765720000000060448201526064016105fa565b6001600160a01b0382166108b25760405162461bcd60e51b815260206004820152601860248201527f496e76616c69642072657669657765722061646472657373000000000000000060448201526064016105fa565b600181810180546001600160a01b0319166001600160a01b03851690811790915560048301805460ff1916831790555f9081526005602090815260408220805493840181558252812090910184905561090c9083906120cf565b600254604080518581524260208201526001600160a01b038581169316917ff173bb801bfadfca82654f0444ddd21cfc87ead9b87a6cfe0bbf336e2202b697910160405180910390a36002546040518481526001600160a01b038481169216907fd134298c1aee5ed8c127c5a4f92de70223c5f7082329391a9b0d4c0dfecca3669060200160405180910390a36001600160a01b0382165f818152600760209081526040918290205491519182527f651a66722b73f353abd943e59cd561150cafdcbb587dc96f1926e18ef35dff2f910160405180910390a2505050565b6003548110610a0b5760405162461bcd60e51b81526004016105fa90612694565b5f60038281548110610a1f57610a1f6126cb565b5f91825260209091206008909102019050600260048083015460ff1690811115610a4b57610a4b6125ba565b14610a8e5760405162461bcd60e51b8152602060048201526013602482015272105d591a5d081b9bdd0818dbdb5c1b195d1959606a1b60448201526064016105fa565b6002546001600160a01b03163314610afd5760405162461bcd60e51b815260206004820152602c60248201527f4f6e6c792044414f2063616e2072656c65617365207061796d656e747320666f60448201526b72206974732061756469747360a01b60648201526084016105fa565b6007810154610100900460ff16158015610b1c5750600781015460ff16155b610b645760405162461bcd60e51b815260206004820152601960248201527814185e5b595b9d1cc8185b1c9958591e481c995b19585cd959603a1b60448201526064016105fa565b5f606460508360020154610b7891906126f3565b610b829190612724565b90505f818360020154610b959190612737565b60078401805461ffff191661010117905560018401546040519192506001600160a01b0316906108fc8415029084905f818181858888f19350505050158015610be0573d5f803e3d5ffd5b506002546040516001600160a01b039091169082156108fc029083905f818181858888f19350505050158015610c18573d5f803e3d5ffd5b50600183015460025460408051878152602081018690526080818301819052600890820152673932bb34b2bbb2b960c11b60a082015242606082015290516001600160a01b0393841693909216917f7ad7a8ed2e89cc99acfb67f5b3efeb9c7f1a178a70bd800e123166f5210a81f49181900360c00190a3600254604080518681526020810184905260808183018190526003908201526264616f60e81b60a082015242606082015290516001600160a01b039092169182917f7ad7a8ed2e89cc99acfb67f5b3efeb9c7f1a178a70bd800e123166f5210a81f4919081900360c00190a350505050565b6002546001600160a01b0316338114610d5d5760405162461bcd60e51b815260206004820152601f60248201527f4f6e6c792044414f2063616e2063616c6c20746869732066756e6374696f6e0060448201526064016105fa565b6003548210610d7e5760405162461bcd60e51b81526004016105fa90612694565b5f60038381548110610d9257610d926126cb565b5f91825260208220600890910201915060048083015460ff1690811115610dbb57610dbb6125ba565b14610dfc5760405162461bcd60e51b81526020600482015260116024820152704175646974206e6f742070656e64696e6760781b60448201526064016105fa565b6002546001600160a01b03165f9081526008602052604090208054610e5a5760405162461bcd60e51b8152602060048201526014602482015273139bc81c995d9a595dd95c9cc81a5b881c1bdbdb60621b60448201526064016105fa565b5f5b815481101561102f57815460018301545f9190610e7a90849061274a565b610e84919061275d565b90505f835f018281548110610e9b57610e9b6126cb565b5f918252602090912001546001600160a01b03169050610eba81611577565b8015610eec57506001600160a01b0381165f908152600385016020526040902054610ee890610e109061274a565b4210155b1561101a57600185810180546001600160a01b0319166001600160a01b03841617905560048601805460ff1916828002179055508354610f2d83600161274a565b610f37919061275d565b6001808601919091556001600160a01b0382165f90815260038601602090815260408083204290556005825282208054938401815582528120909101889055610f819082906120cf565b6002546040518881526001600160a01b038381169216907fd134298c1aee5ed8c127c5a4f92de70223c5f7082329391a9b0d4c0dfecca3669060200160405180910390a36001600160a01b0381165f818152600760209081526040918290205491519182527f651a66722b73f353abd943e59cd561150cafdcbb587dc96f1926e18ef35dff2f910160405180910390a250505050505050565b5050808061102790612770565b915050610e5c565b5060405162461bcd60e51b815260206004820152601d60248201527f4e6f20656c696769626c652072657669657765727320696e20706f6f6c00000060448201526064016105fa565b6004602052815f5260405f208181548110611091575f80fd5b905f5260205f20015f91509150505481565b6110ab6121e2565b60035481106110cc5760405162461bcd60e51b81526004016105fa90612694565b5f600382815481106110e0576110e06126cb565b5f91825260209091206008909102019050600360048083015460ff169081111561110c5761110c6125ba565b1461114e5760405162461bcd60e51b8152602060048201526012602482015271105d591a5d081b9bdd08191a5cdc1d5d195960721b60448201526064016105fa565b6007810154610100900460ff1615801561116d5750600781015460ff16155b6111b55760405162461bcd60e51b815260206004820152601960248201527814185e5b595b9d1cc8185b1c9958591e481c995b19585cd959603a1b60448201526064016105fa565b6004818101805460ff19169091179055805460028201546040516001600160a01b03909216916108fc82150291905f818181858888f193505050501580156111ff573d5f803e3d5ffd5b508054600280549083015460408051868152602081019290925242908201526001600160a01b0392831692909116907f830d18fc0c5e71592ac59ee16a5cb910328d49575e32a169396c446339ef39e190606001610757565b60025460015460405163a2ccd27560e01b81526001600160a01b03928316600482018190523360248301525f939092169063a2ccd27590604401602060405180830381865afa1580156112ad573d5f803e3d5ffd5b505050506040513d601f19601f820116820180604052508101906112d19190612788565b6112ed5760405162461bcd60e51b81526004016105fa906127a7565b6112f633611577565b61133a5760405162461bcd60e51b81526020600482015260156024820152745265766965776572206e6f7420656c696769626c6560581b60448201526064016105fa565b600354831061135b5760405162461bcd60e51b81526004016105fa90612694565b5f6003848154811061136f5761136f6126cb565b5f91825260208220600890910201915060048083015460ff1690811115611398576113986125ba565b146113dc5760405162461bcd60e51b81526020600482015260146024820152734175646974206973206e6f742070656e64696e6760601b60448201526064016105fa565b60018101546001600160a01b0316156114375760405162461bcd60e51b815260206004820152601a60248201527f417564697420616c72656164792068617320726576696577657200000000000060448201526064016105fa565b600181810180546001600160a01b0319163390811790915560048301805460ff1916831790555f81815260056020908152604082208054948501815582528120909201869055611486916120cf565b6002546040805186815242602082015233926001600160a01b0316917f2939dfb557c28cd9363ff77ecc1c5421f9e185a70b8f9d2ed9840705f517a2a2910160405180910390a360025460405185815233916001600160a01b0316907fd134298c1aee5ed8c127c5a4f92de70223c5f7082329391a9b0d4c0dfecca3669060200160405180910390a3335f818152600760209081526040918290205491519182527f651a66722b73f353abd943e59cd561150cafdcbb587dc96f1926e18ef35dff2f910160405180910390a260019250505b50919050565b6005602052815f5260405f208181548110611091575f80fd5b6001600160a01b038082165f908152600660205260408120805491929091166115a35750600192915050565b806006015481600101541080156115be5750600581015460ff165b9392505050565b5f6115ce61220e565b5f34116116115760405162461bcd60e51b8152602060048201526011602482015270135d5cdd081cd95b99081c185e5b595b9d607a1b60448201526064016105fa565b5f8251116116565760405162461bcd60e51b815260206004820152601260248201527112541194c81a185cda081c995c5d5a5c995960721b60448201526064016105fa565b6003805460408051610120810182523381525f602082018181523493830193845260608301888152608084018390524260a085015260c0840183905260e084018390526101008401839052600186018755959091528151600885027fc2575a0e9e593c00f959f8c92f12db2869c3395a3b0502d05e2516446f71f85b810180546001600160a01b03199081166001600160a01b0394851617825593517fc2575a0e9e593c00f959f8c92f12db2869c3395a3b0502d05e2516446f71f85c8301805490951693169290921790925592517fc2575a0e9e593c00f959f8c92f12db2869c3395a3b0502d05e2516446f71f85d8201559351929390927fc2575a0e9e593c00f959f8c92f12db2869c3395a3b0502d05e2516446f71f85e9091019061177e9082612853565b506080820151816004015f6101000a81548160ff021916908360048111156117a8576117a86125ba565b021790555060a0820151600582015560c0820151600682015560e0820151600790910180546101009384015161ffff1990911692151561ff00191692909217911515909202179055335f8181526004602090815260408083208054600181018255908452919092200183905560025490516001600160a01b03909116907f76c1d824330bff2382df8fd724aa1a3e52bb06e3f2d3ba14cb0f2c99d0682eb9906118569034908890429061290f565b60405180910390a3905061188960017f9b779b17422d0df92223018b32b4d1fa46e071723d6817e2486d003becc55f0055565b919050565b335f90815260066020526040902080546001600160a01b03166118f35760405162461bcd60e51b815260206004820152601a60248201527f52657669657765722070726f66696c65206e6f7420666f756e6400000000000060448201526064016105fa565b5f821180156119035750600a8211155b61194f5760405162461bcd60e51b815260206004820152601e60248201527f496e76616c6964206d617820636f6e63757272656e742072657669657773000060448201526064016105fa565b60060155565b61195d6121e2565b6119665f61223c565b565b60025460015460405163a2ccd27560e01b81526001600160a01b0392831660048201819052336024830152929091169063a2ccd27590604401602060405180830381865afa1580156119bc573d5f803e3d5ffd5b505050506040513d601f19601f820116820180604052508101906119e09190612788565b6119fc5760405162461bcd60e51b81526004016105fa906127a7565b600280546001600160a01b03165f9081526008602090815260408083203384529093019052205460ff1615611a655760405162461bcd60e51b815260206004820152600f60248201526e105b1c9958591e481a5b881c1bdbdb608a1b60448201526064016105fa565b600280546001600160a01b039081165f90815260086020908152604080832080546001818101835582865284862090910180546001600160a01b03191633908117909155808652828801909452828520805460ff1916909117905594549051919316917f88cadee4905dedda1d93fe230f7d2857ce570639fb64b5f020dcfdd7eb3e062491a35050565b60038181548110611afe575f80fd5b5f91825260209091206008909102018054600182015460028301546003840180546001600160a01b039485169650929093169390929091611b3e906127d3565b80601f0160208091040260200160405190810160405280929190818152602001828054611b6a906127d3565b8015611bb55780601f10611b8c57610100808354040283529160200191611bb5565b820191905f5260205f20905b815481529060010190602001808311611b9857829003601f168201915b50505050600483015460058401546006850154600790950154939460ff92831694919350918082169161010090041689565b611bef6121e2565b6003548110611c105760405162461bcd60e51b81526004016105fa90612694565b5f60038281548110611c2457611c246126cb565b5f91825260209091206008909102019050600260048083015460ff1690811115611c5057611c506125ba565b14610afd5760405162461bcd60e51b8152602060048201526013602482015272105d591a5d081b9bdd0818dbdb5c1b195d1959606a1b60448201526064016105fa565b60025460015460405163a2ccd27560e01b81526001600160a01b0392831660048201819052336024830152929091169063a2ccd27590604401602060405180830381865afa158015611ce7573d5f803e3d5ffd5b505050506040513d601f19601f82011682018060405250810190611d0b9190612788565b611d275760405162461bcd60e51b81526004016105fa906127a7565b600280546001600160a01b03165f9081526008602090815260408083203384529093019052205460ff16611d8b5760405162461bcd60e51b815260206004820152600b60248201526a139bdd081a5b881c1bdbdb60aa1b60448201526064016105fa565b600254611da1906001600160a01b03163361228b565b60025460405133916001600160a01b0316907f02e4121ed0ac3b427e6e5c781e0d4271591e471a6d9f0663f41c21373ef97908905f90a350565b6003548210611dfc5760405162461bcd60e51b81526004016105fa90612694565b5f60038381548110611e1057611e106126cb565b5f91825260209091206008909102019050600160048083015460ff1690811115611e3c57611e3c6125ba565b14611e7f5760405162461bcd60e51b81526020600482015260136024820152724175646974206e6f7420696e2072657669657760681b60448201526064016105fa565b80546001600160a01b0316331480611ea3575060018101546001600160a01b031633145b611efe5760405162461bcd60e51b815260206004820152602660248201527f4f6e6c7920726571756573746572206f722072657669657765722063616e206460448201526569737075746560d01b60648201526084016105fa565b60048101805460ff1916600317905560025460405133916001600160a01b0316907fe78c65ab90af3b15e3bedf1f87adf191bc87003aa49ff87c1f4137af3a9c6df590611f509087908790429061290f565b60405180910390a3505050565b611f656121e2565b6001600160a01b038116611fbb5760405162461bcd60e51b815260206004820181905260248201527f4e6577206f776e65722063616e6e6f74206265207a65726f206164647265737360448201526064016105fa565b611fc48161223c565b50565b6003548110611fe85760405162461bcd60e51b81526004016105fa90612694565b5f60038281548110611ffc57611ffc6126cb565b5f91825260209091206008909102019050600360048083015460ff1690811115612028576120286125ba565b1461206a5760405162461bcd60e51b8152602060048201526012602482015271105d591a5d081b9bdd08191a5cdc1d5d195960721b60448201526064016105fa565b6002546001600160a01b0316331461114e5760405162461bcd60e51b815260206004820152602260248201527f4f6e6c792044414f2063616e20726566756e6420697473206f776e2061756469604482015261747360f01b60648201526084016105fa565b6001600160a01b038083165f90815260066020526040902080549091166121415780546001600160a01b0319166001600160a01b0384161781555f6001808301829055600283018290556064600380850191909155600484019290925560058301805460ff1916909117905560068201555b811561219257600181018054905f61215883612937565b9091555050600281018054905f61216e83612770565b9190505550600a816003015f828254612187919061274a565b909155506121af9050565b600181018054905f6121a383612770565b90915550504260048201555b60058101805460ff1916600190811790915501546001600160a01b039092165f9081526007602052604090209190915550565b5f546001600160a01b031633146119665760405163118cdaa760e01b81523360048201526024016105fa565b6122166123c6565b60027f9b779b17422d0df92223018b32b4d1fa46e071723d6817e2486d003becc55f0055565b5f80546001600160a01b038381166001600160a01b0319831681178455604051919092169283917f8be0079c531659141344cd1fd0a4f28419497f9722a3daafe3b4186f6b6457e09190a35050565b6001600160a01b0382165f908152600860205260408120905b815481101561239f57826001600160a01b0316825f0182815481106122cb576122cb6126cb565b5f918252602090912001546001600160a01b03160361238d57815482906122f490600190612737565b81548110612304576123046126cb565b5f9182526020909120015482546001600160a01b039091169083908390811061232f5761232f6126cb565b5f91825260209091200180546001600160a01b0319166001600160a01b039290921691909117905581548290806123685761236861294c565b5f8281526020902081015f1990810180546001600160a01b031916905501905561239f565b8061239781612770565b9150506122a4565b506001600160a01b039091165f908152600290910160205260409020805460ff1916905550565b7f9b779b17422d0df92223018b32b4d1fa46e071723d6817e2486d003becc55f005460020361196657604051633ee5aeb560e01b815260040160405180910390fd5b5f60208284031215612418575f80fd5b5035919050565b80356001600160a01b0381168114611889575f80fd5b5f8060408385031215612446575f80fd5b823591506124566020840161241f565b90509250929050565b5f8060408385031215612470575f80fd5b6124798361241f565b946020939093013593505050565b5f60208284031215612497575f80fd5b6115be8261241f565b634e487b7160e01b5f52604160045260245ffd5b5f82601f8301126124c3575f80fd5b813567ffffffffffffffff808211156124de576124de6124a0565b604051601f8301601f19908116603f01168101908282118183101715612506576125066124a0565b8160405283815286602085880101111561251e575f80fd5b836020870160208301375f602085830101528094505050505092915050565b5f6020828403121561254d575f80fd5b813567ffffffffffffffff811115612563575f80fd5b61256f848285016124b4565b949350505050565b5f81518084525f5b8181101561259b5760208185018101518683018201520161257f565b505f602082860101526020601f19601f83011685010191505092915050565b634e487b7160e01b5f52602160045260245ffd5b6001600160a01b038a811682528916602082015260408101889052610120606082018190525f906126018382018a612577565b9150506005871061262057634e487b7160e01b5f52602160045260245ffd5b608082019690965260a081019490945260c0840192909252151560e0830152151561010090910152949350505050565b5f8060408385031215612661575f80fd5b82359150602083013567ffffffffffffffff81111561267e575f80fd5b61268a858286016124b4565b9150509250929050565b60208082526019908201527f417564697420696e646578206f7574206f6620626f756e647300000000000000604082015260600190565b634e487b7160e01b5f52603260045260245ffd5b634e487b7160e01b5f52601160045260245ffd5b808202811582820484141761270a5761270a6126df565b92915050565b634e487b7160e01b5f52601260045260245ffd5b5f8261273257612732612710565b500490565b8181038181111561270a5761270a6126df565b8082018082111561270a5761270a6126df565b5f8261276b5761276b612710565b500690565b5f60018201612781576127816126df565b5060010190565b5f60208284031215612798575f80fd5b815180151581146115be575f80fd5b6020808252601290820152712737ba1030902220a7903932bb34b2bbb2b960711b604082015260600190565b600181811c908216806127e757607f821691505b60208210810361155857634e487b7160e01b5f52602260045260245ffd5b601f82111561284e575f81815260208120601f850160051c8101602086101561282b5750805b601f850160051c820191505b8181101561284a57828155600101612837565b5050505b505050565b815167ffffffffffffffff81111561286d5761286d6124a0565b6128818161287b84546127d3565b84612805565b602080601f8311600181146128b4575f841561289d5750858301515b5f19600386901b1c1916600185901b17855561284a565b5f85815260208120601f198616915b828110156128e2578886015182559484019460019091019084016128c3565b50858210156128ff57878501515f19600388901b60f8161c191681555b5050505050600190811b01905550565b838152606060208201525f6129276060830185612577565b9050826040830152949350505050565b5f81612945576129456126df565b505f190190565b634e487b7160e01b5f52603160045260245ffdfea26469706673582212203bf2c895dba3dc2275ed1175ca76df2275bb0d11b714cb432b8061839277a84564736f6c63430008140033a26469706673582212200926b055137d4c57216643f07bafc435e654671a518a3160bfa77ab551842db164736f6c63430008140033","linkReferences":{}},"methodIdentifiers":{"createDAO(string,string,address[],string)":"1abf42db","daoCount()":"d01cf419","daoIdToAddress(uint256)":"78ca0b48","daoList(uint256)":"37dd27f8","daoToAuditEscrow(address)":"870dfaaf","getAllDAOs()":"3cb2c68a","getAuditEscrowAddress(address)":"95f43496","getDAOAddress(uint256)":"25c4e853","getDAOCount()":"3a479fb8","getReviewers(address)":"9c1eb3c8","isDAO(address)":"50435fa4","isReviewer(address,address)":"a2ccd275","owner()":"8da5cb5b","renounceOwnership()":"715018a6","transferOwnership(address)":"f2fde38b"},"id":33}