{"abi":[{"type":"constructor","inputs":[{"name":"_auditEscrowAddress","type":"address","internalType":"address"},{"name":"_initialOwner","type":"address","internalType":"address"}],"stateMutability":"nonpayable"},{"type":"function","name":"approveReview","inputs":[{"name":"_reviewId","type":"uint256","internalType":"uint256"}],"outputs":[],"stateMutability":"nonpayable"},{"type":"function","name":"auditEscrow","inputs":[],"outputs":[{"name":"","type":"address","internalType":"address"}],"stateMutability":"view"},{"type":"function","name":"auditEscrowAddress","inputs":[],"outputs":[{"name":"","type":"address","internalType":"address"}],"stateMutability":"view"},{"type":"function","name":"auditReviews","inputs":[{"name":"","type":"uint256","internalType":"uint256"},{"name":"","type":"uint256","internalType":"uint256"}],"outputs":[{"name":"","type":"uint256","internalType":"uint256"}],"stateMutability":"view"},{"type":"function","name":"disputeReview","inputs":[{"name":"_reviewId","type":"uint256","internalType":"uint256"}],"outputs":[],"stateMutability":"nonpayable"},{"type":"function","name":"getAuditReviews","inputs":[{"name":"_auditId","type":"uint256","internalType":"uint256"}],"outputs":[{"name":"","type":"uint256[]","internalType":"uint256[]"}],"stateMutability":"view"},{"type":"function","name":"getReview","inputs":[{"name":"_reviewId","type":"uint256","internalType":"uint256"}],"outputs":[{"name":"","type":"tuple","internalType":"struct ReviewSubmission.Review","components":[{"name":"id","type":"uint256","internalType":"uint256"},{"name":"auditId","type":"uint256","internalType":"uint256"},{"name":"reviewer","type":"address","internalType":"address"},{"name":"ipfsHash","type":"string","internalType":"string"},{"name":"status","type":"uint8","internalType":"enum ReviewSubmission.ReviewStatus"},{"name":"approvalCount","type":"uint256","internalType":"uint256"},{"name":"rejectionCount","type":"uint256","internalType":"uint256"},{"name":"submittedAt","type":"uint256","internalType":"uint256"},{"name":"approvedAt","type":"uint256","internalType":"uint256"}]}],"stateMutability":"view"},{"type":"function","name":"getReviewCount","inputs":[],"outputs":[{"name":"","type":"uint256","internalType":"uint256"}],"stateMutability":"view"},{"type":"function","name":"getReviewerReviews","inputs":[{"name":"_reviewer","type":"address","internalType":"address"}],"outputs":[{"name":"","type":"uint256[]","internalType":"uint256[]"}],"stateMutability":"view"},{"type":"function","name":"owner","inputs":[],"outputs":[{"name":"","type":"address","internalType":"address"}],"stateMutability":"view"},{"type":"function","name":"rejectReview","inputs":[{"name":"_reviewId","type":"uint256","internalType":"uint256"}],"outputs":[],"stateMutability":"nonpayable"},{"type":"function","name":"renounceOwnership","inputs":[],"outputs":[],"stateMutability":"nonpayable"},{"type":"function","name":"reviewCount","inputs":[],"outputs":[{"name":"","type":"uint256","internalType":"uint256"}],"stateMutability":"view"},{"type":"function","name":"reviewerReviews","inputs":[{"name":"","type":"address","internalType":"address"},{"name":"","type":"uint256","internalType":"uint256"}],"outputs":[{"name":"","type":"uint256","internalType":"uint256"}],"stateMutability":"view"},{"type":"function","name":"reviews","inputs":[{"name":"","type":"uint256","internalType":"uint256"}],"outputs":[{"name":"id","type":"uint256","internalType":"uint256"},{"name":"auditId","type":"uint256","internalType":"uint256"},{"name":"reviewer","type":"address","internalType":"address"},{"name":"ipfsHash","type":"string","internalType":"string"},{"name":"status","type":"uint8","internalType":"enum ReviewSubmission.ReviewStatus"},{"name":"approvalCount","type":"uint256","internalType":"uint256"},{"name":"rejectionCount","type":"uint256","internalType":"uint256"},{"name":"submittedAt","type":"uint256","internalType":"uint256"},{"name":"approvedAt","type":"uint256","internalType":"uint256"}],"stateMutability":"view"},{"type":"function","name":"submitReview","inputs":[{"name":"_auditId","type":"uint256","internalType":"uint256"},{"name":"_ipfsHash","type":"string","internalType":"string"}],"outputs":[{"name":"","type":"uint256","internalType":"uint256"}],"stateMutability":"nonpayable"},{"type":"function","name":"transferOwnership","inputs":[{"name":"newOwner","type":"address","internalType":"address"}],"outputs":[],"stateMutability":"nonpayable"},{"type":"function","name":"updateAuditEscrow","inputs":[{"name":"_newAuditEscrow","type":"address","internalType":"address"}],"outputs":[],"stateMutability":"nonpayable"},{"type":"function","name":"voteOnReview","inputs":[{"name":"_reviewId","type":"uint256","internalType":"uint256"},{"name":"_approve","type":"bool","internalType":"bool"}],"outputs":[],"stateMutability":"nonpayable"},{"type":"event","name":"OwnershipTransferred","inputs":[{"name":"previousOwner","type":"address","indexed":true,"internalType":"address"},{"name":"newOwner","type":"address","indexed":true,"internalType":"address"}],"anonymous":false},{"type":"event","name":"ReviewApproved","inputs":[{"name":"reviewId","type":"uint256","indexed":true,"internalType":"uint256"},{"name":"approvalCount","type":"uint256","indexed":false,"internalType":"uint256"},{"name":"timestamp","type":"uint256","indexed":false,"internalType":"uint256"}],"anonymous":false},{"type":"event","name":"ReviewDisputed","inputs":[{"name":"reviewId","type":"uint256","indexed":true,"internalType":"uint256"},{"name":"disputer","type":"address","indexed":true,"internalType":"address"},{"name":"timestamp","type":"uint256","indexed":false,"internalType":"uint256"}],"anonymous":false},{"type":"event","name":"ReviewRejected","inputs":[{"name":"reviewId","type":"uint256","indexed":true,"internalType":"uint256"},{"name":"rejectionCount","type":"uint256","indexed":false,"internalType":"uint256"},{"name":"timestamp","type":"uint256","indexed":false,"internalType":"uint256"}],"anonymous":false},{"type":"event","name":"ReviewSubmitted","inputs":[{"name":"reviewId","type":"uint256","indexed":true,"internalType":"uint256"},{"name":"auditId","type":"uint256","indexed":true,"internalType":"uint256"},{"name":"reviewer","type":"address","indexed":true,"internalType":"address"},{"name":"ipfsHash","type":"string","indexed":false,"internalType":"string"},{"name":"timestamp","type":"uint256","indexed":false,"internalType":"uint256"}],"anonymous":false},{"type":"error","name":"OwnableInvalidOwner","inputs":[{"name":"owner","type":"address","internalType":"address"}]},{"type":"error","name":"OwnableUnauthorizedAccount","inputs":[{"name":"account","type":"address","internalType":"address"}]},{"type":"error","name":"ReentrancyGuardReentrantCall","inputs":[]}],"bytecode":{"object":"0x608060405234801562000010575f80fd5b50604051620014cd380380620014cd833981016040819052620000339162000124565b806001600160a01b0381166200006257604051631e4fbdf760e01b81525f600482015260240160405180910390fd5b6200006d81620000b9565b5060017f9b779b17422d0df92223018b32b4d1fa46e071723d6817e2486d003becc55f005550600680546001600160a01b0319166001600160a01b03929092169190911790556200015a565b5f80546001600160a01b038381166001600160a01b0319831681178455604051919092169283917f8be0079c531659141344cd1fd0a4f28419497f9722a3daafe3b4186f6b6457e09190a35050565b80516001600160a01b03811681146200011f575f80fd5b919050565b5f806040838503121562000136575f80fd5b620001418362000108565b9150620001516020840162000108565b90509250929050565b61136580620001685f395ff3fe608060405234801561000f575f80fd5b506004361061011c575f3560e01c806392da173d116100a9578063e83ddcea1161006e578063e83ddcea14610258578063eb55abdf14610280578063ed166ac914610293578063eff5924f146102a6578063f2fde38b146102af575f80fd5b806392da173d146101ec5780639438691c146101ff578063990581b614610212578063b12822d914610232578063ba279a2914610245575f80fd5b8063715018a6116100ef578063715018a61461018357806378d74e6e1461018b57806382509419146101b657806383e98d34146101c95780638da5cb5b146101dc575f80fd5b80631db16c011461012057806332d6418d146101355780635b77d9f41461015e578063709dc7fb14610171575b5f80fd5b61013361012e366004610df9565b6102c2565b005b610148610143366004610e2b565b6103b6565b6040516101559190610e4b565b60405180910390f35b61013361016c366004610df9565b61041f565b6001545b604051908152602001610155565b610133610520565b60025461019e906001600160a01b031681565b6040516001600160a01b039091168152602001610155565b6101486101c4366004610df9565b610533565b60065461019e906001600160a01b031681565b5f546001600160a01b031661019e565b6101336101fa366004610e2b565b610590565b61013361020d366004610e8e565b6105ba565b610225610220366004610df9565b61073d565b6040516101559190610f37565b610175610240366004610fcf565b6108e9565b610175610253366004611003565b610914565b61026b610266366004610df9565b610b5d565b604051610155999897969594939291906110b8565b61017561028e366004611120565b610c3b565b6101336102a1366004610df9565b610c54565b61017560015481565b6101336102bd366004610e2b565b610cd1565b6102ca610d0e565b5f818152600360205260409020805482146103005760405162461bcd60e51b81526004016102f790611148565b60405180910390fd5b5f600482015460ff16600381111561031a5761031a610f03565b146103375760405162461bcd60e51b81526004016102f790611172565b806006015481600501541161039d5760405162461bcd60e51b815260206004820152602660248201527f52657669657720646f6573206e6f742068617665206d616a6f726974792061706044820152651c1c9bdd985b60d21b60648201526084016102f7565b60048101805460ff191660011790554260089091015550565b6001600160a01b0381165f9081526005602090815260409182902080548351818402810184019094528084526060939283018282801561041357602002820191905f5260205f20905b8154815260200190600101908083116103ff575b50505050509050919050565b5f8181526003602052604090208054821461044c5760405162461bcd60e51b81526004016102f790611148565b5f600482015460ff16600381111561046657610466610f03565b148061048a57506001600482015460ff16600381111561048857610488610f03565b145b6104d65760405162461bcd60e51b815260206004820152601960248201527f5265766965772063616e6e6f742062652064697370757465640000000000000060448201526064016102f7565b60048101805460ff19166003179055604051428152339083907f1aefaf9033f88ae126101af3a3fc34673af968302052cd33d685096af591d5149060200160405180910390a35050565b610528610d0e565b6105315f610d3a565b565b5f8181526004602090815260409182902080548351818402810184019094528084526060939283018282801561041357602002820191905f5260205f20908154815260200190600101908083116103ff5750505050509050919050565b610598610d0e565b600680546001600160a01b0319166001600160a01b0392909216919091179055565b5f828152600360205260409020805483146105e75760405162461bcd60e51b81526004016102f790611148565b5f600482015460ff16600381111561060157610601610f03565b1461061e5760405162461bcd60e51b81526004016102f790611172565b60028101546001600160a01b031633036106855760405162461bcd60e51b815260206004820152602260248201527f52657669657765722063616e6e6f7420766f7465206f6e206f776e2072657669604482015261657760f01b60648201526084016102f7565b81156106e657600581018054905f61069c836111a9565b909155505060058101546040805191825242602083015284917ff71464822a1fa928ec8e51bbb53f3b6619932adf93cc52a7c4f3e1fa475b55a691015b60405180910390a2505050565b600681018054905f6106f7836111a9565b909155505060068101546040805191825242602083015284917f1e533c62d6ab42754b4ef2e784b5da1f0ee9320168e65fda73bea2d1cbb7e09091016106d9565b505050565b61078660408051610120810182525f8082526020820181905291810182905260608082015290608082019081526020015f81526020015f81526020015f81526020015f81525090565b5f8281526003602052604090205482146107b25760405162461bcd60e51b81526004016102f790611148565b5f828152600360208181526040928390208351610120810185528154815260018201549281019290925260028101546001600160a01b0316938201939093529082018054919291606084019190610808906111cd565b80601f0160208091040260200160405190810160405280929190818152602001828054610834906111cd565b801561087f5780601f106108565761010080835404028352916020019161087f565b820191905f5260205f20905b81548152906001019060200180831161086257829003601f168201915b5050509183525050600482015460209091019060ff1660038111156108a6576108a6610f03565b60038111156108b7576108b7610f03565b815260058201546020820152600682015460408201526007820154606082015260089091015460809091015292915050565b6004602052815f5260405f208181548110610902575f80fd5b905f5260205f20015f91509150505481565b5f825f81116109585760405162461bcd60e51b815260206004820152601060248201526f125b9d985b1a5908185d591a5d08125160821b60448201526064016102f7565b610960610d89565b5f8351116109a55760405162461bcd60e51b815260206004820152601260248201527112541194c81a185cda081c995c5d5a5c995960721b60448201526064016102f7565b60018054905f6109b4836111a9565b9091555050600154604080516101208101825282815260208101879052339181019190915260608101859052608081015f81525f60208083018290526040808401839052426060808601919091526080909401839052858352600380835292819020855181559185015160018301558401516002820180546001600160a01b0319166001600160a01b039092169190911790559183015190820190610a599082611252565b50608082015160048201805460ff19166001836003811115610a7d57610a7d610f03565b021790555060a082015160058083019190915560c0830151600683015560e08301516007830155610100909201516008909101555f8681526004602090815260408083208054600181810183559185528385200186905533808552948352818420805491820181558452919092200183905551869083907fdfb387243a7a27e148bed0ea06b63a26abc7eada56850f833084f2ade95a733d90610b23908990429061130e565b60405180910390a49150610b5660017f9b779b17422d0df92223018b32b4d1fa46e071723d6817e2486d003becc55f0055565b5092915050565b600360208190525f91825260409091208054600182015460028301549383018054929491936001600160a01b0390921692610b97906111cd565b80601f0160208091040260200160405190810160405280929190818152602001828054610bc3906111cd565b8015610c0e5780601f10610be557610100808354040283529160200191610c0e565b820191905f5260205f20905b815481529060010190602001808311610bf157829003601f168201915b5050506004840154600585015460068601546007870154600890970154959660ff90931695919450925089565b6005602052815f5260405f208181548110610902575f80fd5b610c5c610d0e565b5f81815260036020526040902080548214610c895760405162461bcd60e51b81526004016102f790611148565b5f600482015460ff166003811115610ca357610ca3610f03565b14610cc05760405162461bcd60e51b81526004016102f790611172565b600401805460ff1916600217905550565b610cd9610d0e565b6001600160a01b038116610d0257604051631e4fbdf760e01b81525f60048201526024016102f7565b610d0b81610d3a565b50565b5f546001600160a01b031633146105315760405163118cdaa760e01b81523360048201526024016102f7565b5f80546001600160a01b038381166001600160a01b0319831681178455604051919092169283917f8be0079c531659141344cd1fd0a4f28419497f9722a3daafe3b4186f6b6457e09190a35050565b610d91610db7565b60027f9b779b17422d0df92223018b32b4d1fa46e071723d6817e2486d003becc55f0055565b7f9b779b17422d0df92223018b32b4d1fa46e071723d6817e2486d003becc55f005460020361053157604051633ee5aeb560e01b815260040160405180910390fd5b5f60208284031215610e09575f80fd5b5035919050565b80356001600160a01b0381168114610e26575f80fd5b919050565b5f60208284031215610e3b575f80fd5b610e4482610e10565b9392505050565b602080825282518282018190525f9190848201906040850190845b81811015610e8257835183529284019291840191600101610e66565b50909695505050505050565b5f8060408385031215610e9f575f80fd5b8235915060208301358015158114610eb5575f80fd5b809150509250929050565b5f81518084525f5b81811015610ee457602081850181015186830182015201610ec8565b505f602082860101526020601f19601f83011685010191505092915050565b634e487b7160e01b5f52602160045260245ffd5b60048110610f3357634e487b7160e01b5f52602160045260245ffd5b9052565b6020815281516020820152602082015160408201525f6040830151610f6760608401826001600160a01b03169052565b506060830151610120806080850152610f84610140850183610ec0565b91506080850151610f9860a0860182610f17565b5060a085015160c085015260c085015160e085015260e0850151610100818187015280870151838701525050508091505092915050565b5f8060408385031215610fe0575f80fd5b50508035926020909101359150565b634e487b7160e01b5f52604160045260245ffd5b5f8060408385031215611014575f80fd5b82359150602083013567ffffffffffffffff80821115611032575f80fd5b818501915085601f830112611045575f80fd5b81358181111561105757611057610fef565b604051601f8201601f19908116603f0116810190838211818310171561107f5761107f610fef565b81604052828152886020848701011115611097575f80fd5b826020860160208301375f6020848301015280955050505050509250929050565b898152602081018990526001600160a01b0388166040820152610120606082018190525f906110e98382018a610ec0565b9150506110f96080830188610f17565b8560a08301528460c08301528360e0830152826101008301529a9950505050505050505050565b5f8060408385031215611131575f80fd5b61113a83610e10565b946020939093013593505050565b60208082526010908201526f14995d9a595dc81b9bdd08199bdd5b9960821b604082015260600190565b60208082526018908201527f52657669657720616c72656164792070726f6365737365640000000000000000604082015260600190565b5f600182016111c657634e487b7160e01b5f52601160045260245ffd5b5060010190565b600181811c908216806111e157607f821691505b6020821081036111ff57634e487b7160e01b5f52602260045260245ffd5b50919050565b601f821115610738575f81815260208120601f850160051c8101602086101561122b5750805b601f850160051c820191505b8181101561124a57828155600101611237565b505050505050565b815167ffffffffffffffff81111561126c5761126c610fef565b6112808161127a84546111cd565b84611205565b602080601f8311600181146112b3575f841561129c5750858301515b5f19600386901b1c1916600185901b17855561124a565b5f85815260208120601f198616915b828110156112e1578886015182559484019460019091019084016112c2565b50858210156112fe57878501515f19600388901b60f8161c191681555b5050505050600190811b01905550565b604081525f6113206040830185610ec0565b9050826020830152939250505056fea26469706673582212205c0a0c31432aab2df5e1760a5fb47cf5feb08b7ace791c6797b39f8bca8f92fb64736f6c63430008140033","linkReferences":{}},"methodIdentifiers":{"approveReview(uint256)":"1db16c01","auditEscrow()":"78d74e6e","auditEscrowAddress()":"83e98d34","auditReviews(uint256,uint256)":"b12822d9","disputeReview(uint256)":"5b77d9f4","getAuditReviews(uint256)":"82509419","getReview(uint256)":"990581b6","getReviewCount()":"709dc7fb","getReviewerReviews(address)":"32d6418d","owner()":"8da5cb5b","rejectReview(uint256)":"ed166ac9","renounceOwnership()":"715018a6","reviewCount()":"eff5924f","reviewerReviews(address,uint256)":"eb55abdf","reviews(uint256)":"e83ddcea","submitReview(uint256,string)":"ba279a29","transferOwnership(address)":"f2fde38b","updateAuditEscrow(address)":"92da173d","voteOnReview(uint256,bool)":"9438691c"},"id":34}